:020000040800F2
:10000000F0FF0120C5090008C10900082F250008DC
:10001000C1090008C1090008C1090008000000006A
:10002000000000000000000000000000C1090008FE
:10003000C109000800000000C1090008C10900084A
:10004000C1090008C1090008C1090008C109000868
:10005000C1090008C1090008C1090008C109000858
:10006000C1090008C1090008C1090008C109000848
:10007000C1090008C1090008C1090008C109000838
:10008000C1090008C1090008C1090008C109000828
:10009000C1090008C1090008C1090008C109000818
:1000A000C1090008C1090008C1090008C109000808
:1000B000C1090008C1090008C1090008C1090008F8
:1000C000C1090008C1090008C1090008C1090008E8
:1000D000C1090008C1090008C1090008C1090008D8
:1000E000C1090008C1090008C1090008C1090008C8
:1000F000C1090008C1090008C1090008C1090008B8
:10010000C1090008C1090008C1090008C1090008A7
:10011000C1090008C1090008C1090008C109000897
:10012000C1090008C1090008C1090008C109000887
:10013000C1090008C1090008C1090008C109000877
:10014000C1090008C1090008C1090008C109000867
:10015000C1090008C1090008C1090008C109000857
:10016000C1090008C1090008C1090008C109000847
:10017000C1090008C1090008C1090008C109000837
:10018000C1090008C109000830B40C4C2278531C86
:10019000DBB22244E11800250E2B107123700D7183
:1001A00002D80A2800D038B9002323701A4604491F
:1001B000042030BC02F0B2B930BC70475C040020AF
:1001C000600400202DE9F041ADF5A04D84B04FF45E
:1001D000205605460C46324604A8002104F09CFE39
:1001E0000DF5205032460021103004F095FE2046D7
:1001F0003022002304F04AFB4FF0000804F12001F4
:1002000010220023CDE9022301912846CDF8008079
:1002100000F014FB04F1100701230DF520503A46BD
:100220000093103010234FF4A05104F081FB0223FF
:100230003A4604A800934FF4A051102304F078FB31
:100240000DF520512A46103104A801F0DBF80F23E8
:1002500004AA05F1100000934FF416514FF4A05377
:1002600000F034FA2946384642F2905204F0BAFDC2
:100270000DF5205104F5165032461031203004F0AF
:10028000B1FD0DF5205010304FF4206100F0CCFA94
:1002900040460DF5A04D04B0BDE8F0812DE9F04FCA
:1002A000ADF5EF4D9BB006464FF420550DF51F50B0
:1002B00080248B46904600212A46283004F02CFEEC
:1002C000224614A8002104F027FE224634A800216B
:1002D00004F022FE224654A8002104F01DFE0DF574
:1002E0009F4004AF2A460021683074AD04F014FE2C
:1002F00042F2905400233846102204F0C7FA4146D7
:100300002246284604F06EFD97E80F002C44019524
:10031000032784E80F0042F2A0520023CDE9022314
:1003200008A800973022002300F088FA04230DF576
:100330009F4008AA0093683010234FF4A05104F0A6
:10034000F7FA05230DF51F5008AA00932830102353
:100350004FF4A05104F0ECFA0DF59F410DF51F503C
:100360002A466831283001F07BF84FF00F080DF570
:100370001F523046CDF8008028324FF4A0534FF47E
:10038000165100F0A3F9062308AA14A800934021EF
:10039000102304F0CDFA0DF51F50CDF8008078AA97
:1003A00028304FF416534FF4A05100F0E5F90DF545
:1003B0009F420DF51F5114AB683234A8283101F06B
:1003C0004BF9214654A801F0D7FD54AA34A9104690
:1003D00001F072F942F2F857CDF8008054AA06F500
:1003E00016504023782100F071F931463A462846EC
:1003F00004F0F8FC0DF1300EBEE80F0005EB070A23
:1004000054460FC49EE80F0042F218684FF0070EE2
:100410004FF00009019584E80F00CDF800E0584640
:10042000CDE902891022002310AC00F007FA0FCCAE
:10043000F419F0510DF59F40A260E36061606830EF
:100440004FF4206100F0F0F914A8202100F0ECF93D
:1004500034A8202100F0E8F908A8082100F0E4F908
:100460005046082100F0E0F900200DF5EF4D1BB0DB
:10047000BDE8F08F2DE9F047ADF5204D98B08046EE
:100480000DF521500F46164600214FF42052203022
:1004900004F042FD8022002112A804F03DFD52AB81
:1004A0008022002132A8059304F036FD802200212D
:1004B000059804F031FD8022002172A804F02CFD83
:1004C0000DF5F0440DF5A04060344FF420520021AA
:1004D000603004F021FD92AD06F1100A4FF4205275
:1004E0000021204604F018FD514642F29052284661
:1004F00004F078FC4FF00F090DF521503A462030FA
:100500004FF416534FF4A051CDF8009000F034F999
:1005100078230598CDF8009007F51652402100F099
:100520002BF906F516520DF5215132A82032203153
:1005300001F064F832AA1046059901F0EDFA0DF5C4
:100540001F5032A9183001F05DFF42F2A051002285
:100550000323CDE9021206A800933022002301955F
:1005600000F06CF9042306AA204600934FF4A05132
:10057000102304F0DDF9062306AA12A800934021F7
:10058000102304F0D5F90DF5A04006F120026030EB
:100590004FF416534FF4A051CDF8009000F0ECF852
:1005A0000DF5A04112AB2246603132A801F054F89B
:1005B00005230DF5A04006AA603000934FF4A0512A
:1005C000102304F0B5F90DF5A040524621466030E5
:1005D00000F046FF0DF51F51183172A801F0CCFC58
:1005E00072AA104632A901F067F82846394642F24D
:1005F000F85204F0F7FB0DF5A04360331A6822F0BF
:10060000802243F8042BA342F8D107F51751383163
:1006100010220EA804F0B4FB58B90DF5A0410DF559
:100620002150603120304FF4205204F0A9FB002803
:1006300039D030687168B268F36805F517570EAEA7
:1006400038370FC796E80F0005F51856083686E8C4
:100650000F0042F21866002707231022404600933D
:1006600001950023CDE9026700F0E8F820464FF439
:10067000206100F0D9F812A8202100F0D5F832A8A6
:10068000202100F0D1F806A8082100F0CDF805F5EA
:1006900017503830082100F0C7F800200DF5204D24
:1006A00018B0BDE8F08772A90598802204F068FBB5
:1006B0000028BED10AAF0FCF05F5175638360FC642
:1006C00097E80F0086E80F00C3E700BF2DE9F04F61
:1006D00085B00C4603919046002122461F460290A9
:1006E0009DF8389004F018FC002C3DD00024A6465C
:1006F000A44601944FF0010B674502D834D19CB356
:10070000BC46029A019D505D02EB050A0022C2F12F
:100710000806B4422146A8BF31460BFA01F5631A18
:10072000013DADB24EFA03F32B40761ADBB2C9B2EB
:10073000B340641A1844E4B2C0B2A5400A448AF82F
:1007400000002EEA050ED2B234B9674506D938F852
:100750001CE04C460CF1010C072AD8D9082A06D017
:10076000039B019A9342C7D805B0BDE8F08F019B67
:1007700001330193F4E700BF2DE9F04F85B00C463B
:100780000291904600216200994603909DF83870CE
:1007900004F0C2FB002C40D00024A646A4460194DD
:1007A0004FF0010BE14503D837D1002C35D0CC46B2
:1007B000002F35D0039A019802EB400A32F810005E
:1007C0000022BE1AB4422146A8BF31460BFA01F5F9
:1007D000631A013DADB24EFA03F32B40761ADBB239
:1007E000C9B2B340641A1844E4B280B2A5400A44C6
:1007F000AAF800002EEA050ED2B234B9E14506D9B6
:1008000018F80CE008240CF1010C9742D9D8974253
:1008100006D0029B019A9342C4D805B0BDE8F08F80
:10082000019B01330193F4E731B100EB8101002317
:1008300040F8043B8842FBD1704700BF2DE9F04FE0
:10084000E7B00021BDF8C0B1719E8246904699463E
:10085000C82272AB02A8D3E9004504F05DFB4FEA61
:100860001B238DF8073010230027A8228DF80530B0
:10087000012369468DF8012002A88DF800308DF81B
:1008800002308DF804303A4608238DF806B08DF812
:10089000037002F0B5FA02A802F032FE002D08BF84
:1008A000A82C13D3A83C31464FF0A8034FF0000208
:1008B00002A845F1FF3502F0A3FA02A802F020FEDB
:1008C000002D08BFA82C06F1A806EBD234A8A82258
:1008D000002104F021FB54EA050304D031462246EE
:1008E00034A804F07FFA34AB1C44042323709DF831
:1008F0007741A823002234A902A864F07F048DF870
:10090000774102F07DFA0023A8224046494604F0D0
:10091000ABF806460F4656EA07033AD004460D46A2
:10092000D34614F1FF3402A845F1FF3502F0E8FD8B
:10093000A8235946002202A89B4402F0E1FB54EA96
:100940000503EED140464946A822002304F08CF866
:1009500014461D4654EA050302D167B0BDE8F08F86
:10096000A82702A802F0CCFD3B4602A8002234A929
:1009700007FB06F602F0C4FB54EA050314BF224647
:10098000012234A90AEB060004F02CFA67B0BDE896
:10099000F08F40464946A822002304F065F814462B
:1009A0001D4654EA0503D8D002A802F0A9FD02A80A
:1009B000A823002234A902F0A3FB0026DCE700BF35
:1009C000FEE700BF08B50C480C4B984207D2C24363
:1009D0001A4422F003020432094904F003FA0948D8
:1009E00009494FF000028842B8BF40F8042BFADBF7
:1009F000BDE8084000F06CB8000000205C04002056
:100A0000745000085C04002070040020F0B5ADF5BF
:100A1000194D97B00321284800F0C2FC032400F0D0
:100A20006DF80DF59741383108A8FFF7CBFB00F0C2
:100A300079F8054600F062F80DF5165008AA6946E7
:100A40003030FFF72BFC00F06DF8064600F056F84A
:100A50000DF597420DF516513832303104A8FFF7E5
:100A600009FD00F05FF810220DEB02010746684611
:100A700004F086F93B463246294678B90F4800F023
:100A80008FFC013CCBD10E4800F09EFC0D4800F0DD
:100A90009BFC01200DF5194D17B0F0BD0A4800F080
:100AA0007FFC0A4800F090FC3B463246294603484A
:100AB00000F076FC0020EDE7B44F0008F44F00088A
:100AC0001C50000844500008E04F0008E84F0008A0
:100AD00008B502F07BF803F003FFFFF797FFFEE78E
:100AE00029B9054A536B23EA000050637047024B53
:100AF0005A6B10435863704700380240084A116827
:100B000050680B68926810B443F0807300240B6047
:100B10000460136810BC43F001031360704700BF0A
:100B200000000020014B5B6818687047000000203F
:100B3000092B2DE9F84316461C4602F1FF370546FE
:100B400014D8002FD8BF012004DD3A4604F0E4F9A0
:100B50003D4430461D4BA3FB0423DB0803EB83031A
:100B6000A4EB430330332B70BDE8F883174BA3FB92
:100B700004384FEAD808B8F1090FA2F1020914D8D5
:100B8000B9F1000F1DDD4A4604F0C6F9A94430460C
:100B90000E4BA3FB0823DB0803EB8303A8EB430303
:100BA00030333D4489F80030D4E7094BA3FB0423DC
:100BB0005B094A46FFF7BCFF05EB0009471C023002
:100BC000E6E7814601270220E2E700BFCDCCCCCC8E
:100BD0001F85EB512DE9F843002B144605463ADBFF
:100BE000092B1E461EDD554FA7FB0637FF08092FB0
:100BF00059D8A2F10208B8F1000F40F38F804246A5
:100C000004F08AF905EB0802611E20464B4BA3FB5A
:100C10000743DB0803EB8303A7EB43033033137075
:100C20000D440CE0541E002CD8BF012007DD012C20
:100C3000B8BF0124224604F06FF92544601C3F49E7
:100C4000A1FB0631C90801EB8101A6EB410130315E
:100C50002970BDE8F8835E42092E15DD374FA7FBEA
:100C60000637FF08092F40D8A2F10308B8F1000F9A
:100C70005DDD424604F050F905EB0802611E204696
:100C80002D2302F8013BC1E7941E002C53DD012CFB
:100C9000B8BF01242246254404F03EF92D2305F86F
:100CA000013BA01CCBE7264BA3FB06384FEA5818A4
:100CB000B8F1090FA2F1030923D8B9F1000F31DD12
:100CC0004A4604F029F905EB090EA21E611E2046D2
:100CD0001A4BA3FB0843DB0803EB8303A8EB430396
:100CE00030332A448EF8003090E7154BA3FB0623DF
:100CF0005B09A21E5B42FFF76DFF2A18411C023000
:100D000084E7104BA3FB06239B094A46FFF762FFCB
:100D100005EB000E421C811C0330D9E7024601217D
:100D2000022073E78646022103200122D0E7024613
:100D300002210320A4E70024B0E700BFCDCCCCCC37
:100D40001F85EB51D34D62102DE9F04383B015465A
:100D50000A9C5FEA141806461F461CD1013A002A75
:100D6000D8BF012003DD164404F0D6F8284604F06D
:100D70000F04092C0AD927B95734347003B0BDE8E1
:100D8000F0833734347003B0BDE8F083303434700E
:100D900003B0BDE8F083A2F10209220A17D1B9F12C
:100DA000000F22DD4A4604F0B7F8B1446A1E284617
:100DB00008F00F03092B05D997B9573389F800308C
:100DC0001644D4E7303389F800301644CFE7009258
:100DD0004A46FFF7B9FF06EB0009421C0230E7E77D
:100DE000373389F800301644C1E7814601220220DA
:100DF000DEE700BF2DE9F04F884689B0144605466E
:100E000008B10022027000269946217859B1464562
:100E100080F0028125290ED0013429702178013615
:100E200001350029F3D1B04540F2F68030462970F3
:100E300009B0BDE8F08F6178252938D030293BD042
:100E40000846A0F13003092B04F101044FF0200102
:100E500039D8002303EB830300EB430314F8010F9D
:100E6000A0F13002303B092A03F0FF03F2D91A4601
:100E70003244904538BFC6EB0803A0F1580038BF94
:100E8000DBB2202800F2CF80DFE800F0A5CDCDCD89
:100E9000CDCDCDCDCDCDCD9D79CDCDCDCD79CDCD5A
:100EA000CDCDCDCDCDCDCD66CD3FCDCD20002970E2
:100EB000023401360135A8E7A078A0F13003092BF0
:100EC00004F10204C5D900221346D1E7D9F8007015
:100ED0005FEA171A09F104099B4640F0CD8003F13F
:100EE000FF3ABAF1000F40F384815246284602933C
:100EF00004F012F8029BAA441A469B4607F00F071B
:100F0000092F40F28580573783E0D9F800A0BAF165
:100F1000090F09F104091F4603F1FF3B00F20681A6
:100F2000BBF1000F40F35D815A462846029303F05F
:100F3000F3FF029B05EB0B001A469B46C84BA3FB35
:100F40000A13DB0803EB8303AAEB4303303303707C
:100F5000013415445E4458E7D9F800100B7809F1C4
:100F60000409002B00F022812A4602F8013B11F807
:100F7000013FC5EB020B002BF7D15A46E8E7D9F841
:100F80000020002A09F104091F46C0F2B480092A92
:100F900092464DDC5F1E002F40F32F81012FB8BF1A
:100FA00001273A46284603F0B7FF7A1CEB1993460F
:100FB000AB49A1FB0A01C90801EB8101AAEB410180
:100FC00030311970C4E7D9F800302B70012209F1D3
:100FD00004099346BCE7D9F800705FEA171A09F1D3
:100FE00004099B4668D103F1FF3ABAF1000F40F3C0
:100FF000FC8052462846029303F08EFF029BAA44CF
:101000001A469B4607F00F07092F01D9373700E032
:1010100030378AF800709BE70023701E05F8013C0A
:1010200009B0BDE8F08F4FF0FF3009B0BDE8F08F98
:101030008B4BA3FB023B4FEADB0BBBF1090FA7F184
:10104000020300F29480002B40F3FB801A462846EE
:10105000029303F061FF029B781E2B443A468049BD
:10106000A1FB0BE1C90801EB8101ABEB4101303180
:1010700019702B18BB469BE73A0AA3F1020340F014
:10108000A480002B40F3E2801A462846029303F026
:1010900043FF029B0BF1FF312B445A460AF00F0A23
:1010A000BAF1090F94BF0AF1300A0AF1570A83F81E
:1010B00000A005EB010A21E73A0AA3F1020378D167
:1010C000002B40F3C8801A462846029303F024FF01
:1010D000029B0BF1FF312B445A460AF00F0ABAF17A
:1010E000090F94BF0AF1300A0AF1370A83F800A009
:1010F00005EB010A86E7C2F1000ABAF1090F03F114
:10110000FF3241DC9F1E002F40F3D280012FB8BF79
:1011100001273A4607F1020B284603F0FDFE2F4453
:101120005A463B462D2103F8011B41E74C4BA3FBDC
:101130000A23DB08BA1E092B0393029261D8002A06
:101140002DDD284603F0E8FE029B03982B44194648
:101150003A46434BA3FB00E3DB0803EB8303A0EB1E
:101160004303303305EB0B000B70BB46E6E63D4A0C
:10117000A2FB0A201A4643092846FFF72BFD871CCD
:101180002B183A4601306AE7354BA3FB0A03DB080C
:101190005B422846FFF71EFD471C3A4669E70222DC
:1011A000174629464FF0010B1846D2E71A469B46D0
:1011B000CEE6009228461A460123FFF7C5FD00F14E
:1011C000020B5A462B18411C87E7009228461A4604
:1011D0000023FFF7B9FD00F1020B5A462B18411C02
:1011E0005CE7012293462846A8E601229346AA46D8
:1011F00008E701229346AA4680E6012293462B4641
:10120000D6E6184BA3FB0A235B09FA1E092B0593AC
:10121000049229D8002A4FDD284603F07DFE049B66
:101220003A462B4405990E48A0FB01E0C00800EBAC
:101230008000A1EB400002993030187029440398D7
:1012400087E7022217462B46012008E70222934631
:101250002B46012122E7022293462B4601213CE73F
:10126000CDCCCCCC1F85EB51254BA3FB0A239B098E
:101270001A46092A0693A7F104032ED8002B23DD72
:101280001A462846079303F047FE079B05EB030E1B
:10129000049B3A4606991B48A0FB01C0C00800EB1E
:1012A0008000A1EB400030302B448EF80000B9E7FD
:1012B000022293462F4634E70322012117462B468C
:1012C0004FF0020B0291ADE702230422029317466E
:1012D000AE464FF0030B0123DCE70B4AA2FB0A20CA
:1012E0001A46430B2846FFF723FC071D811C3A468C
:1012F00005EB000E431C029100F1030BCAE700BF8F
:10130000D34D6210CDCCCCCC5917B7D1F0B5224D0E
:1013100096460E4607460FCDA3B06C460FC40FCDC0
:101320000FC42B6823603246734609A86421FFF777
:1013300061FD632815DD194E9DF800003368DD68F6
:1013400030B16C469A68954203D0DB689D4200D06C
:10135000FEE7FEF719FF14F8010F0028F8D03368F4
:10136000F0E79DF8240058B10C4E09AD0024336815
:101370009A68974206D0DB689F4203D04FF0FF3057
:1013800023B0F0BDFEF700FF15F8010F013400286F
:10139000EDD1204623B0F0BD4850000810000020D9
:1013A0000FB400B5074B83B004AA1B6852F8041BA6
:1013B00098680192FFF7AAFF03B05DF804EB04B050
:1013C000704700BF10000020F8B50D4F05463B6880
:1013D00000789E68002488B1FEF7D6FE15F8010F4C
:1013E000013448B13B689A689642F5D0DB689E426A
:1013F000F2D04FF0FF30F8BD2046F8BDF8BD00BF79
:10140000100000202DE9F043ADF2145D0546894639
:10141000904604A84FF4A062002103F07DFD4FF434
:101420008074102600278DE810014FF4A06200237D
:1014300004A8CDE902670134FFF700FAA4B22A46F6
:101440004FF42073494604A801F080F8B4F5607F9A
:1014500005F11005E7D101200DF2145DBDE8F08320
:101460002DE9F04FADF5C95D83B00C4605460890F7
:1014700009920DF5A5604FF4A052002103F04CFD38
:1014800005F5205307930DF5C957002306940593DE
:101490000DF226540637BDF81450099E019605F545
:1014A00080734FF010084FF000099BB20093CDE914
:1014B00002894FF4A06200230DF5A560FFF7BEF985
:1014C00005F201139BB2CDE90289019600934FF416
:1014D000A06200230DF62820FFF7B0F905F581730F
:1014E0009BB2CDE90289019600934FF4A0620023DC
:1014F0000DF62870FFF7A2F905F203139BB20DF564
:10150000A1500093CDE9028901964FF4A062002317
:101510000830FFF793F9089EDDF81880B3464FF4C2
:10152000A06200210AA803F0F7FC0DF2265EC44673
:101530000DF126063CF8025B3146704631F8022F69
:1015400030F8023F8C4213FB05230B80F6D10EF5D9
:10155000A06E7745ECD11BF0070F3ED15846ABF19A
:10156000080C0DF1200E0BF5A06B5CF8083F5EF83F
:10157000086FDCF80450DEF80420C5F30F490021A1
:1015800002EB050A0D4609EB124206EB0309C3F311
:101590000F436AF30F0569F30F0103EB164362F380
:1015A0001F4563F31F4180E8220008305845DCD115
:1015B000079B5B4508F5A068B1D1059B069A0433EB
:1015C0000832B3F5207F059306927FF464AF0120C3
:1015D0000DF5C95D03B0BDE8F08F594636F8022F0E
:1015E0000B88B442134421F8023BF7D1079B0BF55B
:1015F000A06B5B4508F5A06891D1DEE72DE9F047C7
:1016000001F51F5909F13E09A1F1020E02F110087E
:101610004FF0000C174606460021A6F800C00B4606
:10162000744637F8315034F802AF02311AFB0533F3
:101630009BB2B1F5A06F3380F3D10237C3F30E0331
:10164000474526F8023BE7D10EF5A06ECE4500F1E6
:101650001000DFD1BDE8F0872DE9F04F02F51F59EA
:1016600009F13E09A2F1020C01F110080F460646ED
:101670009E463EF8022B32806546002437F834A09F
:1016800035F802BF02341BFB0A2292B2B4F5A06FF8
:101690003280F3D10237C2F30E02B84526F8022B8E
:1016A000E7D10CF5A06CCC4503F1100300F110005C
:1016B000DCD1BDE8F08F00BF00F108038B42F0B52C
:1016C0008CBF0024012493428CBF0023012301F12D
:1016D000080602F10805B04228BF44F00104A84200
:1016E00028BF43F001031C4200F0068242EA0103D6
:1016F00003435B0740F000820E68156857684C682A
:1017000006EB050E0023C5F30F4505EB16451E46F7
:101710006EF30F0307EB040EC4F30F4404EB1744FE
:101720006EF30F0665F31F4364F31F4623F0802317
:1017300026F0802680E8480096688D68D768CC68D7
:1017400006EB050E0023C5F30F4505EB16451E46B7
:101750006EF30F0307EB040EC4F30F4404EB1744BE
:101760006EF30F0665F31F4364F31F4623F08023D7
:1017700026F080268360C66016690D6957694C693A
:1017800006EB050E0023C5F30F4505EB16451E4677
:101790006EF30F0307EB040EC4F30F4404EB17447E
:1017A0006EF30F0665F31F4364F31F4623F0802397
:1017B00026F080260361466196698D69CF69D469F8
:1017C00006EB050E0023C5F30F4505EB16451E4637
:1017D0006EF30F0304EB070EC4F30F4404EB17443E
:1017E0006EF30F0665F31F4364F31F4623F0802357
:1017F00026F080268361C6610E6A156A4F6A546AB4
:1018000006EB050E0023C5F30F4505EB16451E46F6
:101810006EF30F0307EB040EC4F30F4404EB1744FD
:101820006EF30F0665F31F4364F31F4623F0802316
:1018300026F08026036246628E6ACF6A956AD46A71
:1018400006EB050E0023C5F30F4505EB16451E46B6
:101850006EF30F0307EB040EC4F30F4404EB1744BD
:101860006EF30F0665F31F4364F31F4623F08023D6
:1018700026F080268362C6620E6B156B4F6B546B2D
:1018800006EB050E0023C5F30F4505EB16451E4676
:101890006EF30F0307EB040EC4F30F4404EB17447D
:1018A0006EF30F0665F31F4364F31F4623F0802396
:1018B00026F08026036346638E6B956BCF6BD46BEB
:1018C00006EB050E0023C5F30F4505EB16451E4636
:1018D0006EF30F0307EB040EC4F30F4404EB17443D
:1018E0006EF30F0665F31F4364F31F4623F0802356
:1018F00026F080268363C6630E6C156C4F6C546CA7
:1019000006EB050E0023C5F30F4505EB16451E46F5
:101910006EF30F0307EB040EC4F30F4404EB1744FC
:101920006EF30F0665F31F4364F31F4623F0802315
:1019300026F08026036446648E6C956CCF6CD46C64
:1019400006EB050E0023C5F30F4505EB16451E46B5
:101950006EF30F0307EB040EC4F30F4404EB1744BC
:101960006EF30F0665F31F4364F31F4623F08023D5
:1019700026F080268364C6640E6D156D4F6D546D20
:1019800006EB050E0023C5F30F4505EB16451E4675
:101990006EF30F0307EB040EC4F30F4404EB17447C
:1019A0006EF30F0665F31F4364F31F4623F0802395
:1019B00026F08026036546658E6D956DCF6DD46DDE
:1019C00006EB050E0023C5F30F4505EB16451E4635
:1019D0006EF30F0307EB040EC4F30F4404EB17443C
:1019E0006EF30F0665F31F4364F31F4623F0802355
:1019F00026F080268365C6650E6E156E4F6E546E9A
:101A000006EB050E0023C5F30F4505EB16451E46F4
:101A10006EF30F0307EB040EC4F30F4404EB1744FB
:101A20006EF30F0665F31F4364F31F4623F0802314
:101A300026F08026036646668E6E956ECF6ED46E57
:101A400006EB050E0023C5F30F4505EB16451E46B4
:101A50006EF30F0307EB040EC4F30F4404EB1744BB
:101A60006EF30F0665F31F4364F31F4623F08023D4
:101A700026F080268366C6660E6F156F4F6F546F13
:101A800006EB050E0023C5F30F4505EB16451E4674
:101A90006EF30F0307EB040EC4F30F4404EB17447B
:101AA0006EF30F0665F31F4364F31F4623F0802394
:101AB00026F08026036746678E6FCD6F916FD26FD9
:101AC000002306EB010E1C46AF18C1F30F41C2F311
:101AD0000F4201EB16416EF30F0367F30F0402EBA5
:101AE000154261F31F4362F31F4423F0802324F067
:101AF00080248367C467F0BD8C1E023A02387E31B1
:101B000034F8025F32F8023F2B44C3F30E038C42D9
:101B100020F8023FF4D1F0BD00F108038B42F0B58C
:101B20008CBF0024012493428CBF0023012301F1C8
:101B3000080602F10805B04228BF44F00104A8429B
:101B400028BF43F001031C4200F0068242EA010371
:101B500003435B0740F000820E6815684F685468C5
:101B6000C5EB060E0023C5F30F45C5EB16451E4613
:101B70006EF30F03C4EB070EC4F30F44C4EB17441A
:101B80006EF30F0665F31F4364F31F4623F08023B3
:101B900026F0802680E848008E689568CF68D46873
:101BA000C5EB060E0023C5F30F45C5EB16451E46D3
:101BB0006EF30F03C4EB070EC4F30F44C4EB1744DA
:101BC0006EF30F0665F31F4364F31F4623F0802373
:101BD00026F080268360C6600E6915694F695469D6
:101BE000C5EB060E0023C5F30F45C5EB16451E4693
:101BF0006EF30F03C4EB070EC4F30F44C4EB17449A
:101C00006EF30F0665F31F4364F31F4623F0802332
:101C100026F08026036146618E699569CF69D46993
:101C2000C5EB060E0023C5F30F45C5EB16451E4652
:101C30006EF30F03C4EB070EC4F30F44C4EB174459
:101C40006EF30F0665F31F4364F31F4623F08023F2
:101C500026F080268361C6610E6A156A4F6A546A4F
:101C6000C5EB060E0023C5F30F45C5EB16451E4612
:101C70006EF30F03C4EB070EC4F30F44C4EB174419
:101C80006EF30F0665F31F4364F31F4623F08023B2
:101C900026F08026036246628E6ACF6A956AD46A0D
:101CA000C5EB060E0023C5F30F45C5EB16451E46D2
:101CB0006EF30F03C4EB070EC4F30F44C4EB1744D9
:101CC0006EF30F0665F31F4364F31F4623F0802372
:101CD00026F080268362C6620E6B156B4F6B546BC9
:101CE000C5EB060E0023C5F30F45C5EB16451E4692
:101CF0006EF30F03C4EB070EC4F30F44C4EB174499
:101D00006EF30F0665F31F4364F31F4623F0802331
:101D100026F08026036346638E6B956BCF6BD46B86
:101D2000C5EB060E0023C5F30F45C5EB16451E4651
:101D30006EF30F03C4EB070EC4F30F44C4EB174458
:101D40006EF30F0665F31F4364F31F4623F08023F1
:101D500026F080268363C6630E6C156C4F6C546C42
:101D6000C5EB060E0023C5F30F45C5EB16451E4611
:101D70006EF30F03C4EB070EC4F30F44C4EB174418
:101D80006EF30F0665F31F4364F31F4623F08023B1
:101D900026F08026036446648E6C956CCF6CD46C00
:101DA000C5EB060E0023C5F30F45C5EB16451E46D1
:101DB0006EF30F03C4EB070EC4F30F44C4EB1744D8
:101DC0006EF30F0665F31F4364F31F4623F0802371
:101DD00026F080268364C6640E6D156D4F6D546DBC
:101DE000C5EB060E0023C5F30F45C5EB16451E4691
:101DF0006EF30F03C4EB070EC4F30F44C4EB174498
:101E00006EF30F0665F31F4364F31F4623F0802330
:101E100026F08026036546658E6D956DCF6DD46D79
:101E2000C5EB060E0023C5F30F45C5EB16451E4650
:101E30006EF30F03C4EB070EC4F30F44C4EB174457
:101E40006EF30F0665F31F4364F31F4623F08023F0
:101E500026F080268365C6650E6E156E4F6E546E35
:101E6000C5EB060E0023C5F30F45C5EB16451E4610
:101E70006EF30F03C4EB070EC4F30F44C4EB174417
:101E80006EF30F0665F31F4364F31F4623F08023B0
:101E900026F08026036646668E6E956ECF6ED46EF3
:101EA000C5EB060E0023C5F30F45C5EB16451E46D0
:101EB0006EF30F03C4EB070EC4F30F44C4EB1744D7
:101EC0006EF30F0665F31F4364F31F4623F0802370
:101ED00026F080268366C6660E6F156F4F6F546FAF
:101EE000C5EB060E0023C5F30F45C5EB16451E4690
:101EF0006EF30F03C4EB070EC4F30F44C4EB174497
:101F00006EF30F0665F31F4364F31F4623F080232F
:101F100026F08026036746678E6FCD6F916FD26F74
:101F20000023C1EB060E1C46AF1AC1F30F41C2F3EA
:101F30000F42C1EB16416EF30F0367F30F04C2EBC0
:101F4000154261F31F4362F31F4423F0802324F002
:101F500080248367C467F0BD8C1E023A02387E314C
:101F600034F8023F32F8025F5B1BC3F30E038C426E
:101F700020F8023FF4D1F0BD2DE9F0414C78230E5A
:101F800022020C78002522432B43970847EA8377E7
:101F90009C08BE0846EA8476B5081C0945EA8475A3
:101FA0004FEA931EAC0844EA8E744FEA132C4FEAB2
:101FB000940E4EEA8C7E4FEA423C9A0A4FEA9E0308
:101FC00043EA82737F0364034FEA4E32760307F4D9
:101FD000C04E6D0304F4C0475C03DB020CF4C04C3C
:101FE00006F4C04605F4C04502F4C04204F4C044FF
:101FF00003F4C043A0F800C0A0F802E08680C580CA
:1020000007814281C3818481CC78230E22028C789F
:10201000002514431D434FEA940C4CEA857CAB0821
:102020004FEA9C0E4EEA837E4FEA9E072B0947EA51
:102030008377AA09BB0843EA82732E0A9A0842EA08
:1020400086724FEA952866035D034FEA4C34930885
:1020500043EA887304F4C04444824FEA4E3E5C0372
:102060007F035203DB0206F4C0460EF4C04E07F4B1
:10207000C04705F4C04502F4C04204F4C04403F470
:10208000C0430682A0F814E0C78205834283C3835D
:1020900084834C79230E22020C79002514431D43BE
:1020A0004FEA940C4CEA857CAB084FEA9C0E4EEA52
:1020B000837E4FEA9E072B0947EA8377AA09BB086C
:1020C00043EA82732E0A9A0842EA86724FEA9528FA
:1020D00066035D034FEA4C34930843EA887304F4C3
:1020E000C04444844FEA4E3E5C037F035203DB024C
:1020F00006F4C0460EF4C04E07F4C04705F4C045D0
:1021000002F4C04204F4C04403F4C0430684A0F8BF
:1021100024E0C78405854285C3858485CC79230E58
:1021200022028C79002514431D434FEA940C4CEA9B
:10213000857CAB084FEA9C0E4EEA837E4FEA9E07F1
:102140002B0947EA8377AA09BB0843EA82732E0A60
:102150009A0842EA86724FEA952866035D034FEAC1
:102160004C34930843EA887304F4C04444864FEA2D
:102170004E3E5C037F035203DB0206F4C0460EF4BE
:10218000C04E07F4C04705F4C04502F4C04204F451
:10219000C04403F4C0430686A0F834E0C786058730
:1021A0004287C38784874C7A230E22020C7A00254B
:1021B00014431D434FEA940C4CEA857CAB084FEA6C
:1021C0009C0E4EEA837E4FEA9E072B0947EA8377EF
:1021D000AA09BB0843EA82732E0A9A0842EA867269
:1021E0004FEA952866035D034FEA4C34930843EAAF
:1021F000887304F4C044A0F842404FEA4E3E5C03AA
:102200007F035203DB0206F4C0460EF4C04E07F40F
:10221000C04705F4C04502F4C04204F4C04403F4CE
:10222000C043A0F84060A0F844E0A0F84670A0F8D1
:102230004850A0F84A20A0F84E30A0F84C40CC7A84
:10224000230E22028C7A002514431D434FEA940C7E
:102250004CEA857CAB084FEA9C0E4EEA837E4FEA3F
:102260009E072B0947EA8377AA09BB0843EA8273D2
:102270002E0A9A0842EA86724FEA952866035D03A1
:102280004FEA4C34930843EA887304F4C044A0F83E
:1022900052404FEA4E3E5C037F035203DB0206F4DA
:1022A000C0460EF4C04E07F4C04705F4C04502F422
:1022B000C04204F4C04403F4C043A0F85060A0F846
:1022C00054E0A0F85670A0F85850A0F85A20A0F892
:1022D0005E30A0F85C404C7B230E22020C7B002574
:1022E00014431D434FEA940C4CEA857CAB084FEA3B
:1022F0009C0E4EEA837E4FEA9E072B0947EA8377BE
:10230000AA09BB0843EA82732E0A9A0842EA867237
:102310004FEA952866035D034FEA4C34930843EA7D
:10232000887306F4C04604F4C044A0F860604FEA25
:102330004E3EA0F862407F035C035203DB020EF4C2
:10234000C04E07F4C04705F4C04502F4C04204F48F
:10235000C04403F4C043A0F864E0A0F86670A0F89D
:102360006850A0F86A20A0F86E30A0F86C40CC7BD2
:10237000230E22028C7B002522432B43970847EA39
:1023800083779908BE0846EA8176B508190945EAB7
:102390008175AC08990944EA81744FEA132EA108AB
:1023A00041EA8E714FEA423E9A0A8B0843EA8273F1
:1023B00064034A037F0304F4C04176035C036D03A6
:1023C000DB020EF4C04E07F4C04706F4C04605F425
:1023D000C04502F4C04204F4C04403F4C043A0F872
:1023E00070E0A0F87270A0F87460A0F87650A0F8C1
:1023F0007810A0F87A20A0F87C40A0F87E30BDE8E4
:10240000F08100BF2DE9F04F8DB0CDE900BC00F1A7
:10241000100EB1F80280CA884D898C880E890F8809
:10242000C8F30E0808F58058C8F341381FFA88F839
:10243000C2F30E024FEA987302F580520193C4F37F
:102440000E04C2F34133C5F30E024FEA880500952E
:1024500004F5805402F58052DDE90089C4F341346B
:10246000C2F34135A4B29AB2C6F30E06C7F30E0703
:1024700093014FEA041A06F5805607F58057C7F313
:1024800041370293C6F34136CB898C8948EA0A0862
:1024900048EA0708B6B2970E0397320EC3F30E034D
:1024A00003F580570592DDE90223C4F30E043302DD
:1024B00042EA080204F5805490460493AAB2C4F399
:1024C0004134950DC7F34133A4B29202DDE90467AC
:1024D0000692220D07950992220346EA0806089201
:1024E000DDE906899AB2940C0B94DDE9084548EAC7
:1024F00006084646930334430A932646DDE90A3428
:1025000033431E461B0A067043700230864501F1B4
:1025100010017FF47EAF0DB0BDE8F08FABBE01E0DF
:1025200000207047002A00D01060012070470698F4
:1025300001884BF6AB62914202D10430069070479D
:10254000FEE7000000BA704740BA70472DE9F45F1B
:10255000148855889688D788B2F80880B2F80A900F
:10256000B2F80CA0B2F80EB04FEA530350F8042BA7
:10257000B1E8005002FB0C444FEA1C4C02FB0C5526
:1025800002FB0E664FEA1E4E02FB0E77B1E80050CA
:1025900002FB0C884FEA1C4C02FB0C9902FB0EAAB2
:1025A0004FEA1E4E02FB0EBB4FEA1242B1E800504A
:1025B00002FB0C444FEA1C4C02FB0C5502FB0E665E
:1025C0004FEA1E4E02FB0E77B1E8005002FB0C886A
:1025D0004FEA1C4C02FB0C9902FB0EAA4FEA1E4E5E
:1025E00002FB0EBB013BC1D104BC14805580968018
:1025F000D780A2F80880A2F80A90A2F80CA0A2F84E
:102600000EB0BDE8F05F70472DE9FE5F1488558875
:102610009688D788B2F80880B2F80A90B2F80CA071
:10262000B2F80EB04FEA530350F8042BB1E8005053
:1026300002FB0C444FEA1C4C02FB0C5502FB0E66DD
:102640004FEA1E4E02FB0E77B1E8005002FB0C88E9
:102650004FEA1C4C02FB0C9902FB0EAA4FEA1E4EDD
:1026600002FB0EBB4FEA1242B1E8005002FB0C44E1
:102670004FEA1C4C02FB0C5502FB0E664FEA1E4E45
:1026800002FB0E77B1E8005002FB0C884FEA1C4CAD
:1026900002FB0C9902FB0EAA4FEA1E4E02FB0EBB78
:1026A000013BC1D10EBC148055809680D780A2F822
:1026B0000880A2F80A90A2F80CA0A2F80EB01A4462
:1026C0001A440EB4148855889688D788B2F80880C2
:1026D000B2F80A90B2F80CA0B2F80EB04FEA530369
:1026E00050F8042BB1E8005002FB0C444FEA1C4C9C
:1026F00002FB0C5502FB0E664FEA1E4E02FB0E77E4
:10270000B1E8005002FB0C884FEA1C4C02FB0C990C
:1027100002FB0EAA4FEA1E4E02FB0EBB4FEA12420C
:10272000B1E8005002FB0C444FEA1C4C02FB0C5574
:1027300002FB0E664FEA1E4E02FB0E77B1E8005018
:1027400002FB0C884FEA1C4C02FB0C9902FB0EAA00
:102750004FEA1E4E02FB0EBB013BC1D10EBC1480E2
:1027600055809680D780A2F80880A2F80A90A2F837
:102770000CA0A2F80EB01A441A440EB4148855885E
:102780009688D788B2F80880B2F80A90B2F80CA000
:10279000B2F80EB04FEA530350F8042BB1E80050E2
:1027A00002FB0C444FEA1C4C02FB0C5502FB0E666C
:1027B0004FEA1E4E02FB0E77B1E8005002FB0C8878
:1027C0004FEA1C4C02FB0C9902FB0EAA4FEA1E4E6C
:1027D00002FB0EBB4FEA1242B1E8005002FB0C4470
:1027E0004FEA1C4C02FB0C5502FB0E664FEA1E4ED4
:1027F00002FB0E77B1E8005002FB0C884FEA1C4C3C
:1028000002FB0C9902FB0EAA4FEA1E4E02FB0EBB06
:10281000013BC1D10EBC148055809680D780A2F8B0
:102820000880A2F80A90A2F80CA0A2F80EB01A44F0
:102830001A440EB4148855889688D788B2F8088050
:10284000B2F80A90B2F80CA0B2F80EB04FEA5303F7
:1028500050F8042BB1E8005002FB0C444FEA1C4C2A
:1028600002FB0C5502FB0E664FEA1E4E02FB0E7772
:10287000B1E8005002FB0C884FEA1C4C02FB0C999B
:1028800002FB0EAA4FEA1E4E02FB0EBB4FEA12429B
:10289000B1E8005002FB0C444FEA1C4C02FB0C5503
:1028A00002FB0E664FEA1E4E02FB0E77B1E80050A7
:1028B00002FB0C884FEA1C4C02FB0C9902FB0EAA8F
:1028C0004FEA1E4E02FB0EBB013BC1D10EBC148071
:1028D00055809680D780A2F80880A2F80A90A2F8C6
:1028E0000CA0A2F80EB01A441A440EB414885588ED
:1028F0009688D788B2F80880B2F80A90B2F80CA08F
:10290000B2F80EB04FEA530350F8042BB1E8005070
:1029100002FB0C444FEA1C4C02FB0C5502FB0E66FA
:102920004FEA1E4E02FB0E77B1E8005002FB0C8806
:102930004FEA1C4C02FB0C9902FB0EAA4FEA1E4EFA
:1029400002FB0EBB4FEA1242B1E8005002FB0C44FE
:102950004FEA1C4C02FB0C5502FB0E664FEA1E4E62
:1029600002FB0E77B1E8005002FB0C884FEA1C4CCA
:1029700002FB0C9902FB0EAA4FEA1E4E02FB0EBB95
:10298000013BC1D10EBC148055809680D780A2F83F
:102990000880A2F80A90A2F80CA0A2F80EB01A447F
:1029A0001A440EB4148855889688D788B2F80880DF
:1029B000B2F80A90B2F80CA0B2F80EB04FEA530386
:1029C00050F8042BB1E8005002FB0C444FEA1C4CB9
:1029D00002FB0C5502FB0E664FEA1E4E02FB0E7701
:1029E000B1E8005002FB0C884FEA1C4C02FB0C992A
:1029F00002FB0EAA4FEA1E4E02FB0EBB4FEA12422A
:102A0000B1E8005002FB0C444FEA1C4C02FB0C5591
:102A100002FB0E664FEA1E4E02FB0E77B1E8005035
:102A200002FB0C884FEA1C4C02FB0C9902FB0EAA1D
:102A30004FEA1E4E02FB0EBB013BC1D10EBC1480FF
:102A400055809680D780A2F80880A2F80A90A2F854
:102A50000CA0A2F80EB01A441A440EB4148855887B
:102A60009688D788B2F80880B2F80A90B2F80CA01D
:102A7000B2F80EB04FEA530350F8042BB1E80050FF
:102A800002FB0C444FEA1C4C02FB0C5502FB0E6689
:102A90004FEA1E4E02FB0E77B1E8005002FB0C8895
:102AA0004FEA1C4C02FB0C9902FB0EAA4FEA1E4E89
:102AB00002FB0EBB4FEA1242B1E8005002FB0C448D
:102AC0004FEA1C4C02FB0C5502FB0E664FEA1E4EF1
:102AD00002FB0E77B1E8005002FB0C884FEA1C4C59
:102AE00002FB0C9902FB0EAA4FEA1E4E02FB0EBB24
:102AF000013BC1D10EBC148055809680D780A2F8CE
:102B00000880A2F80A90A2F80CA0A2F80EB01A440D
:102B10001A440EB4148855889688D788B2F808806D
:102B2000B2F80A90B2F80CA0B2F80EB04FEA530314
:102B300050F8042BB1E8005002FB0C444FEA1C4C47
:102B400002FB0C5502FB0E664FEA1E4E02FB0E778F
:102B5000B1E8005002FB0C884FEA1C4C02FB0C99B8
:102B600002FB0EAA4FEA1E4E02FB0EBB4FEA1242B8
:102B7000B1E8005002FB0C444FEA1C4C02FB0C5520
:102B800002FB0E664FEA1E4E02FB0E77B1E80050C4
:102B900002FB0C884FEA1C4C02FB0C9902FB0EAAAC
:102BA0004FEA1E4E02FB0EBB013BC1D10EBC14808E
:102BB00055809680D780A2F80880A2F80A90A2F8E3
:102BC0000CA0A2F80EB0BDE8F05F7047364B374856
:102BD0001A68002142F001021A6099601A6822F016
:102BE000847222F480321A6058601A6882B022F42B
:102BF00080221A60D960009101911A6842F48032F3
:102C00001A601A4603E0009BB3F5A06F09D0136861
:102C100003F400330193009B01330093019B002BCD
:102C2000F1D0214B1B6813F4003318BF012301932B
:102C3000019B012B05D01E4B4FF000629A6002B041
:102C40007047194B1B491A6C1B4842F080521A649A
:102C50000A6842F480420A609A689A609A6842F46C
:102C600000429A609A6842F4A0529A6058601A68CA
:102C700042F080721A601A4611680B4B8901FBD52D
:102C80000E4A40F2056111609A6822F003029A60D0
:102C90009A6842F002029A601A46936803F00C03A5
:102CA000082BFAD1C7E700BF0038024010300024DB
:102CB00000ED00E00070004008544007003C024076
:102CC0000000000000000000000000000000000004
:102CD00000000000000000000000000000000000F4
:102CE00000000000000000000000000000000000E4
:102CF00000000000000000000000000000000000D4
:102D0000704700BFAFF30080AFF30080AFF30080E7
:102D1000AFF30080AFF30080AFF30080AFF300802B
:102D2000AFF30080AFF30080AFF30080AFF300801B
:102D3000AFF30080AFF30080AFF30080AFF300800B
:102D40000000000000000000000000000000000083
:102D50000000000000000000000000000000000073
:102D60000000000000000000000000000000000063
:102D70000000000000000000000000000000000053
:102D80000000000000000000000000000000000043
:102D90000000000000000000000000000000000033
:102DA0000000000000000000000000000000000023
:102DB0000000000000000000000000000000000013
:102DC0000000000000000000000000000000000003
:102DD00000000000000000000000000000000000F3
:102DE00000000000000000000000000000000000E3
:102DF00000000000000000000000000000000000D3
:102E000003B32DE9F04122F00704001912F0070284
:102E10000BD01C00C2F10805AC4200DD2C00A3EB76
:102E20000408230000F0ECF84346DA0804D0984682
:102E300000F066F808F0070313B1002200F0E0F894
:102E4000BDE8F081704700BFAFF30080AFF30080B2
:102E5000AFF30080AFF30080AFF30080AFF30080EA
:102E6000AFF30080AFF30080AFF30080AFF30080DA
:102E7000AFF30080AFF30080AFF30080AFF30080CA
:102E80000000000000000000000000000000000042
:102E90000000000000000000000000000000000032
:102EA0000000000000000000000000000000000022
:102EB0000000000000000000000000000000000012
:102EC0000000000000000000000000000000000002
:102ED00000000000000000000000000000000000F2
:102EE00000000000000000000000000000000000E2
:102EF00000000000000000000000000000000000D2
:102F000051F8044B51F8045BD0E9006704F05533E5
:102F100043EA530303F0333343EA930303F00F33DD
:102F200043EA131303F0FF1363F30F2386EA132618
:102F300005F0553343EA530303F0333343EA930375
:102F400003F00F3343EA131303F0FF1343EA132391
:102F500086EA034604F0AA3343EA430303F0CC3382
:102F600043EA830303F0F03343EA031303F0FF2340
:102F700043EA032387EA134705F0AA3343EA4303EE
:102F800003F0CC3343EA830303F0F03343EA031343
:102F900003F0FF2343EA03236FF30F035F40E0E8EE
:102FA0000267013AACD17047AFF30080AFF3008005
:102FB000AFF30080AFF30080AFF30080AFF3008089
:102FC0000000000000000000000000000000000001
:102FD00000000000000000000000000000000000F1
:102FE00000000000000000000000000000000000E1
:102FF00000000000000000000000000000000000D1
:103000000024002530B46A4411F8015B02F8015B2A
:10301000013BF9D130BCD0E9006704F0553343EAF5
:10302000530303F0333343EA930303F00F3343EACC
:10303000131303F0FF1363F30F2386EA132605F03F
:10304000553343EA530303F0333343EA930303F066
:103050000F3343EA131303F0FF1343EA132386EA03
:10306000034604F0AA3343EA430303F0CC3343EAB4
:10307000830303F0F03343EA031303F0FF2343EA2F
:10308000032387EA134705F0AA3343EA430303F017
:10309000CC3343EA830303F0F03343EA031303F032
:1030A000FF2343EA03236FF30F035F40E0E8026767
:1030B000704700BFAFF30080AFF30080AFF3008034
:1030C0000000000000000000000000000000000000
:1030D00000000000000000000000000000000000F0
:1030E00000000000000000000000000000000000E0
:1030F00000000000000000000000000000000000D0
:1031000003B32DE9F04122F00704001912F0070281
:103110000BD01C00C2F10805AC4200DD2C00A3EB73
:103120000408230000F0ECF84346DA0804D098467F
:1031300000F066F808F0070313B1002200F0E0F891
:10314000BDE8F081704700BFAFF30080AFF30080AF
:10315000AFF30080AFF30080AFF30080AFF30080E7
:10316000AFF30080AFF30080AFF30080AFF30080D7
:10317000AFF30080AFF30080AFF30080AFF30080C7
:10318000000000000000000000000000000000003F
:10319000000000000000000000000000000000002F
:1031A000000000000000000000000000000000001F
:1031B000000000000000000000000000000000000F
:1031C00000000000000000000000000000000000FF
:1031D00000000000000000000000000000000000EF
:1031E00000000000000000000000000000000000DF
:1031F00000000000000000000000000000000000CF
:10320000F0E80245230065F31F446FF30F0545EA1C
:10321000134584EA142303F47F435C4084EA0324C7
:1032200084EA141303F0F0135C4084EA031484EA84
:10323000940303F00C335C4084EA830484EA54036F
:1032400003F022335C4084EA430485EA152303F447
:103250007F435D4085EA032585EA151303F0F013EB
:103260005D4085EA031585EA950303F00C335D4064
:1032700085EA830585EA550303F022335D4085EA3C
:10328000430541F8044B013A41F8045BB8D170475B
:10329000AFF30080AFF30080AFF30080AFF30080A6
:1032A000AFF30080AFF30080AFF30080AFF3008096
:1032B000AFF30080AFF30080AFF30080AFF3008086
:1032C00000000000000000000000000000000000FE
:1032D00000000000000000000000000000000000EE
:1032E00000000000000000000000000000000000DE
:1032F00000000000000000000000000000000000CE
:10330000F0E80245260065F31F446FF30F0545EA18
:10331000164584EA142606F47F46744084EA06249F
:1033200084EA141606F0F016744084EA061484EA5F
:10333000940606F00C36744084EA860484EA540647
:1033400006F02236744084EA460485EA152606F41F
:103350007F46754085EA062585EA151606F0F016C3
:10336000754085EA061585EA950606F00C36754027
:1033700085EA860585EA550606F02236754085EA17
:10338000460530B46A4412F8014B013B01F8014B89
:10339000F9D102B0704700BFAFF30080AFF30080F7
:1033A000AFF30080AFF30080AFF30080AFF3008095
:1033B000AFF30080AFF30080AFF30080AFF3008085
:1033C00000000000000000000000000000000000FD
:1033D00000000000000000000000000000000000ED
:1033E00000000000000000000000000000000000DD
:1033F00000000000000000000000000000000000CD
:103400000100000000000000000000008900000032
:10341000000000008B000080000000008080008021
:10342000010000008B00000001000000008000008F
:103430000100000088800080010000008200008000
:10344000000000000B000000000000000A00000067
:1034500001000000828000000000000003800000E6
:10346000010000008B800000010000000B000080C4
:10347000010000008A00008001000000810000803F
:1034800000000000810000800000000008000080B3
:1034900000000000830000000000000003800080A6
:1034A000010000008880008000000000880000808B
:1034B0000100000000800000000000008280008009
:1034C000FF000000AFF30080AFF30080AFF3008097
:1034D000AFF30080AFF30080AFF30080AFF3008064
:1034E000AFF30080AFF30080AFF30080AFF3008054
:1034F000AFF30080AFF30080AFF30080AFF3008044
:10350000AFF204112DE9F05F86B00591036A816C7A
:103510004B40016F4B40D0F898104B40D0F8C01092
:103520004B40C768416B4F40C16D4F40D0F884108D
:103530004F40D0F8AC104F4083EAF7760096466AC9
:10354000C16C4E40416F4E40D0F89C104E40D0F8B8
:10355000C4104E40D0F808E0016B9EEA010E816D68
:103560009EEA010ED0F880109EEA010ED0F8A81055
:103570009EEA010E96EA0E08CDF804800569816B7B
:103580004D40016E4D40D0F888104D40D0F8B0103D
:103590004D4085EAF679CDF808904469C16B4C40FE
:1035A000416E4C40D0F88C104C40D0F8B4104C40D8
:1035B000634003930368816A4B40016D4B40816F08
:1035C0004B40D0F8A0104B4083EAF47A4668C16AB9
:1035D0004E40416D4E40C16F4E40D0F8A4104E4059
:1035E00096EA050BC469416C4C40C16E4C40D0F862
:1035F00094104C40D0F8BC104C408EEAF475049501
:103600008569016C4D40816E4D40D0F890104D4061
:10361000D0F8B8104D4097EA050285EAF67C94EAA6
:10362000030E456DD0F88460D0F8B4708369846C63
:1036300095EA0805574096EA0B0693EA090394EACF
:103640000C045FEAB5755FEA76265FEA77075FEA02
:10365000B3435FEAB45425EA04015940416526EAC0
:1036600005016140C0F8841027EA06016940C0F8EE
:10367000B41023EA07017140816124EA0301794013
:103680008164D0F8A4708368C46B856ED0F89C60A8
:1036900097EA0807544093EA0A0395EA090596EA6F
:1036A0000E065FEAF7575FEA74745FEA35555FEA22
:1036B000367625EA04015940C0F8A41026EA05012F
:1036C0006140816027EA06016940C16323EA07017E
:1036D0007140816624EA03017940C0F89C10DDF84E
:1036E0000080846A856DD0F88C60D0F8B870436A29
:1036F00094EA0804564095EA0A0597EA090793EA0E
:103700000E035FEAB4345FEAF5655FEA36665FEAA6
:1037100037175FEAB34325EA04015940816226EA7C
:1037200005016140816527EA06016940C0F88C10F7
:1037300023EA07017140C0F8B81024EA0301794078
:103740004162866FD0F8AC704369046C056F96EAED
:103750000806534097EA0B0794EA090495EA0C051A
:103760005FEA36365FEAF7775FEA73035FEA74145D
:103770005FEA753525EA04015940816726EA0501AB
:103780006140C0F8AC1027EA06016940416123EAB4
:1037900007017140016424EA030179400167DDF803
:1037A0000C900368046B456ED0F89460D0F8C0703C
:1037B00093EA0803554094EA0A0496EA090697EA50
:1037C0000C075FEAB4245FEAB5255FEA76565FEA44
:1037D000776726EA05016140016327EA060169402F
:1037E000416623EA07017140C0F8941024EA0301FE
:1037F0007940C0F8C0100599A5430C686B40634040
:103800000360049A056DD0F88060D0F8B070C36989
:10381000C46C95EA0805574096EA0A0693EA09033C
:1038200094EA0E045FEAF5755FEAB6265FEAB70729
:103830005FEAB3435FEAB45425EA040159400165E5
:1038400026EA05016140C0F8801027EA06016940B8
:10385000C0F8B01023EA07017140C16124EA0301F6
:103860007940C164D0F8A070C368846BC56ED0F88D
:10387000986097EA0807544093EA0B0395EA090514
:1038800096EA0C065FEAF7575FEAF3735FEA74742F
:103890005FEAF5455FEA367625EA04015940C0F84B
:1038A000A01026EA05016140C16027EA06016940CF
:1038B000816323EA07017140C16624EA030179406C
:1038C000C0F89810DDF80480C46AC56DD0F888602F
:1038D000D0F8BC70036A94EA0804564095EA0B05D8
:1038E00097EA090793EA0C035FEAB4345FEAF565E7
:1038F0005FEA76665FEA37175FEAF34325EA040179
:103900005940C16226EA05016140C16527EA060106
:103910006940C0F8881023EA07017140C0F8BC1064
:1039200024EA030179400162C66FD0F8A8700369E8
:10393000446C456F96EA0806534097EA0A0794EAF2
:10394000090495EA0E055FEAF6265FEAF7775FEA73
:1039500073035FEA34145FEA353525EA0401594000
:10396000C16726EA05016140C0F8A81027EA0601F0
:103970006940016123EA07017140416424EA0301BF
:1039800079404167DDF808904368446B056ED0F8D4
:103990009060D0F8C47093EA0803554094EA0B0491
:1039A00096EA090697EA0E075FEAB4245FEAF5256E
:1039B0005FEAB6565FEA776726EA05016140416330
:1039C00027EA06016940016623EA07017140C0F851
:1039D000901024EA03017940C0F8C4100599A5436A
:1039E0004C686B4063404360D0F8C030816C4B4002
:1039F000D0F898104B40416A4B40416F4B40476BA9
:103A0000D0F880104F4081684F40C16D4F40D0F8D2
:103A1000AC104F4083EAF7760096D0F8C460C16CD2
:103A20004E40D0F89C104E40016A4E40016F4E400F
:103A3000D0F830E0D0F884109EEA010EC1689EEA0A
:103A4000010E816D9EEA010ED0F8A8109EEA010ECB
:103A500096EA0E08CDF80480456ED0F8B4104D40BB
:103A6000816B4D40D0F88C104D4001694D4085EA86
:103A7000F679CDF80890046ED0F8B0104C40C16BC8
:103A80004C40D0F888104C4041694C40634003934F
:103A90000368416D4B40D0F8A0104B40816A4B4009
:103AA000C16F4B4083EAF47A4668016D4E40D0F80E
:103AB000A4104E40C16A4E40816F4E4096EA050BFD
:103AC000D0F89040C1694C40816E4C40D0F8BC1099
:103AD0004C40016C4C408EEAF4750495D0F894503B
:103AE00081694D40C16E4D40D0F8B8104D40416CD9
:103AF0004D4097EA050285EAF67C94EA030ED0F879
:103B0000A450C66D4769D0F89430846C95EA0805D6
:103B1000574096EA0B0693EA090394EA0C045FEA1D
:103B2000B5755FEA76265FEA77075FEAB3435FEA37
:103B3000B45425EA04015940C0F8A41026EA05014E
:103B40006140C16527EA06016940416123EA070136
:103B50007140C0F8941024EA030179408164876FB2
:103B6000036BD0F8B040C56E066A97EA0807544068
:103B700093EA0A0395EA090596EA0E065FEAF75703
:103B80005FEA74745FEA35555FEA367625EA040128
:103B90005940816726EA05016140016327EA060171
:103BA0006940C0F8B01023EA07017140C16624EAF9
:103BB000030179400162DDF80080446DC568D0F8EA
:103BC0008860476CD0F8C43094EA0804564095EAFF
:103BD0000A0597EA090793EA0E035FEAB4345FEA3D
:103BE000F5655FEA36665FEA37175FEAB34325EAB1
:103BF00004015940416526EA05016140C16027EA98
:103C000006016940C0F8881023EA07017140416449
:103C100024EA03017940C0F8C410866AD0F8AC7079
:103C2000036E8469D0F8985096EA0806534097EAE4
:103C30000B0794EA090495EA0C055FEA36365FEA59
:103C4000F7775FEA73035FEA74145FEA753525EA74
:103C500004015940816226EA05016140C0F8AC10B8
:103C600027EA06016940016623EA07017140816184
:103C700024EA03017940C0F89810DDF80C9003683D
:103C8000D0F88440C56BD0F8BC60476F93EA080356
:103C9000554094EA0A0496EA090697EA0C075FEA97
:103CA000B4245FEAB5255FEA76565FEA776726EACD
:103CB00005016140C0F8841027EA06016940C1632C
:103CC00023EA07017140C0F8BC1024EA03017940DF
:103CD00041670599A5438C686B4063400360049A73
:103CE000D0F8A050866D0769D0F89030C46C95EA82
:103CF0000805574096EA0A0693EA090394EA0E0477
:103D00005FEAF5755FEAB6265FEAB7075FEAB34395
:103D10005FEAB45425EA04015940C0F8A01026EA2D
:103D200005016140816527EA06016940016123EAD6
:103D300007017140C0F8901024EA03017940C16482
:103D4000C76F436BD0F8B440856E466A97EA0807A0
:103D5000544093EA0B0395EA090596EA0C065FEADC
:103D6000F7575FEAF3735FEA74745FEAF5455FEA59
:103D7000367625EA04015940C16726EA050161400B
:103D8000416327EA06016940C0F8B41023EA07013D
:103D90007140816624EA030179404162DDF80480C4
:103DA000046D8568D0F88C60076CD0F8C03094EA58
:103DB0000804564095EA0B0597EA090793EA0C03B5
:103DC0005FEAB4345FEAF5655FEA76665FEA371763
:103DD0005FEAF34325EA04015940016526EA05013B
:103DE0006140816027EA06016940C0F88C1023EA2F
:103DF00007017140016424EA03017940C0F8C01052
:103E0000C66AD0F8A870436EC469D0F89C5096EA90
:103E10000806534097EA0A0794EA090495EA0E0552
:103E20005FEAF6265FEAF7775FEA73035FEA341426
:103E30005FEA353525EA04015940C16226EA0501E9
:103E40006140C0F8A81027EA06016940416623EAEC
:103E500007017140C16124EA03017940C0F89C1058
:103E6000DDF808904368D0F88040856BD0F8B860E2
:103E7000076F93EA0803554094EA0B0496EA090693
:103E800097EA0E075FEAB4245FEAF5255FEAB656C3
:103E90005FEA776726EA05016140C0F8801027EAEB
:103EA00006016940816323EA07017140C0F8B81038
:103EB00024EA0301794001670599A543CC686B406A
:103EC00063404360436F816C4B40416A4B40D0F884
:103ED000C4104B40D0F89C104B40D0F88070816DDE
:103EE0004F40016B4F4081684F40D0F8AC104F40BD
:103EF00083EAF7760096066FC16C4E40016A4E4029
:103F0000D0F8C0104E40D0F898104E40D0F884E061
:103F1000C16D9EEA010E416B9EEA010EC1689EEAE8
:103F2000010ED0F8A8109EEA010E96EA0E08CDF810
:103F30000480C56B41694D40D0F8B4104D40D0F8B5
:103F400088104D40416E4D4085EAF679CDF80890D5
:103F5000846B01694C40D0F8B0104C40D0F88C1004
:103F60004C40016E4C40634003930368D0F8A410AA
:103F70004B40C16F4B40416D4B40C16A4B4083EA9F
:103F8000F47A4668D0F8A0104E40816F4E40016D23
:103F90004E40816A4E4096EA050BD0F8B840D0F802
:103FA00090104C40C16E4C40016C4C4081694C40BB
:103FB0008EEAF4750495D0F8BC50D0F894104D40BA
:103FC000816E4D40416C4D40C1694D4097EA0502FC
:103FD00085EAF67C94EA030E856F8668076ED0F852
:103FE000BC30846C95EA0805574096EA0B0693EAC4
:103FF000090394EA0C045FEAB5755FEA76265FEA86
:1040000077075FEAB3435FEAB45425EA04015940F5
:10401000816726EA05016140816027EA060169405F
:10402000016623EA07017140C0F8BC1024EA0301CD
:1040300079408164876AD0F884300469856ED0F84D
:10404000C06097EA0807544093EA0A0395EA090515
:1040500096EA0E065FEAF7575FEA74745FEA355531
:104060005FEA367625EA04015940816226EA0501B5
:104070006140C0F8841027EA06016940016123EA23
:1040800007017140816624EA03017940C0F8C0103D
:10409000DDF80080D0F8A440456BD0F88C60C7698B
:1040A000036F94EA0804564095EA0A0597EA09075F
:1040B00093EA0E035FEAB4345FEAF5655FEA3666B9
:1040C0005FEA37175FEAB34325EA04015940C0F8B5
:1040D000A41026EA05016140416327EA0601694010
:1040E000C0F88C1023EA07017140C16124EA030182
:1040F00079400167466DD0F8AC70836BD0F894407E
:10410000456A96EA0806534097EA0B0794EA0904C1
:1041100095EA0C055FEA36365FEAF7775FEA7303E4
:104120005FEA74145FEA753525EA04015940416578
:1041300026EA05016140C0F8AC1027EA0601694093
:10414000816323EA07017140C0F8941024EA030157
:1041500079404162DDF80C900368C46DD0F8B0502E
:10416000066CD0F89C7093EA0803554094EA0A0460
:1041700096EA090697EA0C075FEAB4245FEAB525D8
:104180005FEA76565FEA776726EA05016140C16516
:1041900027EA06016940C0F8B01023EA0701714020
:1041A000016424EA03017940C0F89C100599A543F5
:1041B0000C696B4063400360049AC56FC668476E24
:1041C000D0F8B830C46C95EA0805574096EA0A065C
:1041D00093EA090394EA0E045FEAF5755FEAB626EE
:1041E0005FEAB7075FEAB3435FEAB45425EA040124
:1041F0005940C16726EA05016140C16027EA06010E
:104200006940416623EA07017140C0F8B81024EA0A
:1042100003017940C164C76AD0F880304469C56E33
:10422000D0F8C46097EA0807544093EA0B0395EA74
:10423000090596EA0C065FEAF7575FEAF3735FEA4F
:1042400074745FEAF5455FEA367625EA0401594061
:10425000C16226EA05016140C0F8801027EA060124
:104260006940416123EA07017140C16624EA030104
:104270007940C0F8C410DDF80480D0F8A040056B88
:10428000D0F888608769436F94EA0804564095EA3D
:104290000B0597EA090793EA0C035FEAB4345FEA77
:1042A000F5655FEA76665FEA37175FEAF34325EA6A
:1042B00004015940C0F8A01026EA050161400163DD
:1042C00027EA06016940C0F8881023EA0701714017
:1042D000816124EA030179404167066DD0F8A87036
:1042E000C36BD0F89040056A96EA0806534097EAF7
:1042F0000A0794EA090495EA0E055FEAF6265FEAE2
:10430000F7775FEA73035FEA34145FEA353525EA2D
:1043100004015940016526EA05016140C0F8A81072
:1043200027EA06016940C16323EA07017140C0F82A
:10433000901024EA030179400162DDF80890436897
:10434000846DD0F8B450466CD0F8987093EA0803A6
:10435000554094EA0B0496EA090697EA0E075FEACD
:10436000B4245FEAF5255FEAB6565FEA776726EA86
:1043700005016140816527EA06016940C0F8B41073
:1043800023EA07017140416424EA03017940C0F83F
:1043900098100599A5434C696B4063404360D0F881
:1043A0009C30816C4B40D0F8C4104B40016F4B40A7
:1043B000016A4B40876DC1684F40D0F884104F4070
:1043C000016B4F40D0F8AC104F4083EAF77600966F
:1043D000D0F89860C16C4E40D0F8C0104E40416F8C
:1043E0004E40416A4E40D0F85CE081689EEA010E82
:1043F000D0F880109EEA010E416B9EEA010ED0F8C3
:10440000A8109EEA010E96EA0E08CDF80480D0F8B6
:10441000B050016E4D4041694D40D0F88C104D4078
:10442000C16B4D4085EAF679CDF80890D0F8B440DC
:10443000416E4C4001694C40D0F888104C40816B73
:104440004C40634003930368816F4B40C16A4B400B
:10445000D0F8A4104B40016D4B4083EAF47A4668D3
:10446000C16F4E40816A4E40D0F8A0104E40416D61
:104470004E4096EA050B446CD0F8B8104C40816E63
:104480004C4081694C40D0F894104C408EEAF47551
:104490000495056CD0F8BC104D40C16E4D40C1690B
:1044A0004D40D0F890104D4097EA050285EAF67C21
:1044B00094EA030E856A066B876B036C846C95EA3D
:1044C0000805574096EA0B0693EA090394EA0C04A0
:1044D0005FEAB5755FEA76265FEA77075FEAB3437E
:1044E0005FEAB45425EA04015940816226EA0501D5
:1044F0006140016327EA06016940816323EA0701FD
:104500007140016424EA030179408164476DC36D01
:10451000446EC56E466F97EA0807544093EA0A0353
:1045200095EA090596EA0E065FEAF7575FEA7474A2
:104530005FEA35555FEA367625EA04015940416560
:1045400026EA05016140C16527EA06016940416626
:1045500023EA07017140C16624EA030179404167FB
:10456000DDF80080846FD0F88050D0F88860D0F8F3
:104570009070D0F8983094EA0804564095EA0A05FD
:1045800097EA090793EA0E035FEAB4345FEAF56538
:104590005FEA36665FEA37175FEAB34325EA04014C
:1045A0005940816726EA05016140C0F8801027EA7A
:1045B00006016940C0F8881023EA07017140C0F87D
:1045C000901024EA03017940C0F89810D0F8A46054
:1045D000D0F8AC70D0F8B430D0F8BC40D0F8C450AB
:1045E00096EA0806534097EA0B0794EA090495EA0D
:1045F0000C055FEA36365FEAF7775FEA73035FEA36
:1046000074145FEA753525EA04015940C0F8A41016
:1046100026EA05016140C0F8AC1027EA06016940AE
:10462000C0F8B41023EA07017140C0F8BC1024EAB6
:1046300003017940C0F8C410DDF80C900368846869
:1046400005698669076A93EA0803554094EA0A04F3
:1046500096EA090697EA0C075FEAB4245FEAB525F3
:104660005FEA76565FEA776726EA05016140816076
:1046700027EA06016940016123EA0701714081616F
:1046800024EA0301794001620599A5438C696B40D6
:1046900063400360049AC56A466BC76B436CC46C85
:1046A00095EA0805574096EA0A0693EA090394EA50
:1046B0000E045FEAF5755FEAB6265FEAB7075FEAC0
:1046C000B3435FEAB45425EA04015940C16226EAC3
:1046D00005016140416327EA06016940C16323EA9D
:1046E00007017140416424EA03017940C164076D08
:1046F000836D046E856E066F97EA0807544093EA4F
:104700000B0395EA090596EA0C065FEAF7575FEA9C
:10471000F3735FEA74745FEAF5455FEA367625EA7B
:1047200004015940016526EA05016140816527EAD7
:1047300006016940016623EA07017140816624EAA7
:10474000030179400167DDF80480C46FD0F884501C
:10475000D0F88C60D0F89470D0F89C3094EA0804BB
:10476000564095EA0B0597EA090793EA0C035FEABE
:10477000B4345FEAF5655FEA76665FEA37175FEAA9
:10478000F34325EA04015940C16726EA0501614067
:10479000C0F8841027EA06016940C0F88C1023EAAB
:1047A00007017140C0F8941024EA03017940C0F871
:1047B0009C10D0F8A060D0F8A870D0F8B030D0F835
:1047C000B840D0F8C05096EA0806534097EA0A0766
:1047D00094EA090495EA0E055FEAF6265FEAF777A0
:1047E0005FEA73035FEA34145FEA353525EA0401B2
:1047F0005940C0F8A01026EA05016140C0F8A81091
:1048000027EA06016940C0F8B01023EA07017140A9
:10481000C0F8B81024EA03017940C0F8C010DDF8F0
:1048200008904368C4684569C669476A93EA080303
:10483000554094EA0B0496EA090697EA0E075FEAE8
:10484000B4245FEAF5255FEAB6565FEA776726EAA1
:1048500005016140C16027EA06016940416123EA20
:1048600007017140C16124EA030179404162059961
:10487000A543CC696B40634051F8204F0591FF2C54
:1048800043607EF443AE06B0BDE8F09F52EA0301F8
:1048900024D02DE9F04100F1FF3816461F460024D0
:1048A000002500200AE0013445F10005AF4208BFB1
:1048B000A64208F8010F4FEA10200CD004F00302C2
:1048C00000231343EFD1012000F028F80028FAD08C
:1048D00000F01EF8E7E70020BDE8F08100207047F7
:1048E00008B540200121FCF7FBF80120BDE8084095
:1048F00000F000B8054A136818B923F004031360E8
:10490000704743F004031360704700BF000806506F
:10491000014B9868704700BF00080650034B5B6866
:10492000184214BF01200020704700BF0008065045
:10493000F0B585B00C464E00BDF828100293002358
:104940008DE80600039332460746FBF777FF002CFD
:1049500000F08280434D38463E442946B5F800E0D9
:104960000488BEF1010F4FEA540704F0010477D028
:104970008B880EF1FF3EDB1BC3F3C032BEF1010F8B
:104980005FFA82FC98BF13B25ED9CB88DB1BC3F3FE
:10499000C033BEF1020F634460D00A89D21BC2F358
:1049A000C0321344BEF1030FDBB257D04A89D21B89
:1049B000C2F3C0321344BEF1040FDBB24ED08A8979
:1049C000D21BC2F3C0321344BEF1050FDBB245D097
:1049D000CA89D21BC2F3C0321344BEF1060FDBB248
:1049E0003CD00A8AD21BC2F3C0321344BEF1070F77
:1049F000DBB233D04A8AD21BC2F3C0321344BEF1B9
:104A0000080FDBB22AD08A8AD21BC2F3C032134409
:104A1000BEF1090FDBB221D0EA8AD21BC2F3C03249
:104A20001344BEF10A0FDBB218D00A8BD21BC2F3BB
:104A3000C0321344BEF10B0FDBB20FD04A8BD21B36
:104A4000C2F3C0321344DBB2A4B2624253402344E7
:104A500020F8023B864281D105B0F0BD1BB2F3E7DE
:104A60000023F1E74004002053B94AB9002908BFE8
:104A700000281CBF4FF0FF314FF0FF3000F07EB92F
:104A8000ADF1080C6DE904CE00F006F8DDF804E0A5
:104A9000DDE9022304B070472DE9F0478C460E464D
:104AA0000446089D002B50D18A4217466CD9B2FAB1
:104AB00082FEBEF1000F0BD0CEF1200420FA04F4E8
:104AC00001FA0EF644EA060C02FA0EF700FA0EF4AA
:104AD0004FEA1749220CBCFBF9F01FFA87F809FBD3
:104AE00010C642EA064600FB08F3B34209D9F6199C
:104AF00000F1FF3280F02281B34240F21F81023880
:104B00003E44F61AA2B2B6FBF9F309FB136642EA79
:104B1000064403FB08F8A04509D9E41903F1FF3264
:104B200080F00A81A04540F20781023B3C44C8EB7B
:104B3000040443EA00400021002D62D024FA0EF460
:104B400000232C606B60BDE8F0878B4207D9002DF5
:104B500055D0002185E841000846BDE8F087B3FA4A
:104B600083F1002940F09080B34202D3824200F2E8
:104B7000F880841A66EB03060120B446002D40D06D
:104B800085E81010BDE8F08712B90127B7FBF2F7EE
:104B9000B7FA87FEBEF1000F35D1F31B4FEA174875
:104BA0001FFA87FC0121B3FBF8F0220C08FB10363A
:104BB00042EA06460CFB00F3B34207D9F61900F1AE
:104BC000FF3202D2B34200F2CE801046F61AA2B2F1
:104BD000B6FBF8F308FB136642EA06440CFB03FC41
:104BE000A44507D9E41903F1FF3202D2A44500F22B
:104BF000B5801346CCEB040443EA00409CE7294609
:104C00002846BDE8F087CEF1200106FA0EF307FA38
:104C10000EF720FA01F94FEA1748CE4049EA030996
:104C2000B6FBF8FA4FEA194408FB1A661FFA87FC2C
:104C300044EA06430AFB0CF29A4200FA0EF40AD93F
:104C4000DB190AF1FF3180F087809A4240F28480BC
:104C5000AAF1020A3B449B1A1FFA89F9B3FBF8F147
:104C600008FB113349EA034301FB0CF69E4207D9C6
:104C7000DB1901F1FF326BD29E4269D902393B4404
:104C80009B1B41EA0A418EE7C1F1200E22FA0EF485
:104C90008B40234320FA0EF706FA01F44FEA134C37
:104CA00026FA0EF63C43B6FBFCF9270C0CFB196602
:104CB0001FFA83F847EA064609FB08F7B74202FAEB
:104CC00001F200FA01FA08D9F61809F1FF3041D2D1
:104CD000B7423FD9A9F102091E44F61BA0B2B6FBA8
:104CE000FCF40CFB146640EA064704FB08F8B845E0
:104CF00007D9FF1804F1FF3028D2B84526D9023C65
:104D00001F4444EA0940C8EB0707A0FB02894F454E
:104D100044464E4614D329D065B3BAEB040367EB7F
:104D2000060707FA0EFECB40CF404EEA030385E8A4
:104D300088000021BDE8F0871346F8E61046E0E65B
:104D4000B8EB020469EB03060138E5E70446D8E74F
:104D5000114695E78146C0E78A467CE7023B3C4422
:104D600048E708460AE702383E442FE7C245E7D342
:104D70003E46D1E72946BDE8F08700BF704700BF37
:104D8000032A70B426D940EA01039B0711D00478A6
:104D90000D78AC4222D10244431C05E013F8014BCC
:104DA00011F8015FAC4219D19342F7D1002070BCD9
:104DB00070470C4603461E682568AE4218462146D9
:104DC00003F1040304F10404E1D1043A032A184670
:104DD0002146F0D8002ADAD11046E8E7601B70BC03
:104DE000704700BF844641EA000313F003036DD10E
:104DF000403A41D351F8043B40F8043B51F8043B9E
:104E000040F8043B51F8043B40F8043B51F8043BA4
:104E100040F8043B51F8043B40F8043B51F8043B94
:104E200040F8043B51F8043B40F8043B51F8043B84
:104E300040F8043B51F8043B40F8043B51F8043B74
:104E400040F8043B51F8043B40F8043B51F8043B64
:104E500040F8043B51F8043B40F8043B51F8043B54
:104E600040F8043B51F8043B40F8043B51F8043B44
:104E700040F8043B403ABDD2303211D351F8043BE4
:104E800040F8043B51F8043B40F8043B51F8043B24
:104E900040F8043B51F8043B40F8043B103AEDD293
:104EA0000C3205D351F8043B40F8043B043AF9D2E4
:104EB000043208D0D2071CBF11F8013B00F8013BB7
:104EC00001D30B8803806046704700BF082A13D3C4
:104ED0008B078DD010F003038AD0C3F10403D21ADC
:104EE000DB071CBF11F8013B00F8013B80D331F810
:104EF000023B20F8023B7BE7043AD9D3013A11F890
:104F0000013B00F8013BF9D20B7803704B784370FA
:104F10008B7883706046704770B4840746D0541E07
:104F2000002A41D0CDB2034602E0621EE4B314462B
:104F300003F8015B9A07F8D1032C2ED9CDB245EACC
:104F400005250F2C45EA054519D903F1100226461F
:104F5000103E0F2E42F8105C42F80C5C42F8085CE0
:104F600042F8045C02F11002F2D8A4F1100222F01F
:104F70000F0204F00F041032032C13440DD91E4607
:104F80002246043A032A46F8045BFAD8221F22F08C
:104F900003020432134404F003042CB1C9B21C44CC
:104FA00003F8011BA342FBD170BC704714460346B3
:104FB000C2E700BF54657374696E6720284B454D86
:104FC000292C20746573747320666F722025692004
:104FD000697465726174696F6E730A200000000065
:104FE0004552524F522120004B454D204641494CDD
:104FF000454420004359434C4553204B657970612B
:1050000069723A2025752C20456E633A2025752C4F
:10501000204465633A202575200A20005465737486
:1050200073205041535345442E20416C6C207365CE
:105030007373696F6E206B657973206D617463683B
:1050400065642E00200A0000737464696F2E633A51
:1050500020696E637265617365204D41585F5354DA
:0C50600052494E475F53495A450A0D0063
:08506C002CFAFF7F0100000097
:10507400FCED00E0041000E0001000E0000000007F
:1050840018000020000000000000000000000000E4
:10509400010000000000000000000000000000000B
:1050A40000000000000000000000000000000000FC
:1050B40000000000000000000000000000000000EC
:1050C40000000000000000000000000000000000DC
:1050D40000000000000000000000000000000000CC
:1054B4000C0000007712103580510166FA722E7AC2
:0C54C400B07D307FC07FEF7FFC7FFF7F5A
:0400000508000000EF
:00000001FF
