:020000040800F2
:10000000F0FF0120C5090008C109000837580008A1
:10001000C1090008C1090008C1090008000000006A
:10002000000000000000000000000000C1090008FE
:10003000C109000800000000C1090008C10900084A
:10004000C1090008C1090008C1090008C109000868
:10005000C1090008C1090008C1090008C109000858
:10006000C1090008C1090008C1090008C109000848
:10007000C1090008C1090008C1090008C109000838
:10008000C1090008C1090008C1090008C109000828
:10009000C1090008C1090008C1090008C109000818
:1000A000C1090008C1090008C1090008C109000808
:1000B000C1090008C1090008C1090008C1090008F8
:1000C000C1090008C1090008C1090008C1090008E8
:1000D000C1090008C1090008C1090008C1090008D8
:1000E000C1090008C1090008C1090008C1090008C8
:1000F000C1090008C1090008C1090008C1090008B8
:10010000C1090008C1090008C1090008C1090008A7
:10011000C1090008C1090008C1090008C109000897
:10012000C1090008C1090008C1090008C109000887
:10013000C1090008C1090008C1090008C109000877
:10014000C1090008C1090008C1090008C109000867
:10015000C1090008C1090008C1090008C109000857
:10016000C1090008C1090008C1090008C109000847
:10017000C1090008C1090008C1090008C109000837
:10018000C1090008C109000830B40C4C2278531C86
:10019000DBB22244E11800250E2B107123700D7183
:1001A00002D80A2800D038B9002323701A4604491F
:1001B000042030BC05F036BB30BC70475C04002026
:1001C000600400202DE9F041ADF5A04D84B04FF45E
:1001D000205605460C46324604A8002107F01CFDB7
:1001E0000DF5205032460021103007F015FD204655
:1001F0003022002307F0CAF94FF0000804F1200173
:1002000010220023CDE9022301912846CDF8008079
:1002100000F014FB04F1100701230DF520503A46BD
:100220000093103010234FF4A05107F001FA02237D
:100230003A4604A800934FF4A051102307F0F8F9B0
:100240000DF520512A46103104A804F0BBFA0F2303
:1002500004AA05F1100000934FF416514FF4A05377
:1002600000F034FA2946384642F2905207F03AFC40
:100270000DF5205104F5165032461031203007F0AC
:1002800031FC0DF5205010304FF4206100F0CCFA15
:1002900040460DF5A04D04B0BDE8F0812DE9F04FCA
:1002A000ADF5EF4D9BB006464FF420550DF51F50B0
:1002B00080248B46904600212A46283007F0ACFC6B
:1002C000224614A8002107F0A7FC224634A80021EA
:1002D00007F0A2FC224654A8002107F09DFC0DF572
:1002E0009F4004AF2A460021683074AD07F094FCAB
:1002F00042F2905400233846102207F047F9414655
:100300002246284607F0EEFB97E80F002C440195A3
:10031000032784E80F0042F2A0520023CDE9022314
:1003200008A800973022002300F088FA04230DF576
:100330009F4008AA0093683010234FF4A05107F0A3
:1003400077F905230DF51F5008AA009328301023D4
:100350004FF4A05107F06CF90DF59F410DF51F50BA
:100360002A466831283004F07FFA4FF00F080DF567
:100370001F523046CDF8008028324FF4A0534FF47E
:10038000165100F0A3F9062308AA14A800934021EF
:10039000102307F04DF90DF51F50CDF8008078AA15
:1003A00028304FF416534FF4A05100F0E5F90DF545
:1003B0009F420DF51F5114AB683234A8283104F068
:1003C000CFFA214654A804F05BFF54AA34A9104682
:1003D00004F0F6FA42F2F857CDF8008054AA06F578
:1003E00016504023782100F071F931463A462846EC
:1003F00007F078FB0DF1300EBEE80F0005EB070AA1
:1004000054460FC49EE80F0042F218684FF0070EE2
:100410004FF00009019584E80F00CDF800E0584640
:10042000CDE902891022002310AC00F007FA0FCCAE
:10043000F419F0510DF59F40A260E36061606830EF
:100440004FF4206100F0F0F914A8202100F0ECF93D
:1004500034A8202100F0E8F908A8082100F0E4F908
:100460005046082100F0E0F900200DF5EF4D1BB0DB
:10047000BDE8F08F2DE9F047ADF5204D98B08046EE
:100480000DF521500F46164600214FF42052203022
:1004900007F0C2FB8022002112A807F0BDFB52AB7F
:1004A0008022002132A8059307F0B6FB80220021AC
:1004B000059807F0B1FB8022002172A807F0ACFB81
:1004C0000DF5F0440DF5A04060344FF420520021AA
:1004D000603007F0A1FB92AD06F1100A4FF42052F4
:1004E0000021204607F098FB514642F290522846E0
:1004F00007F0F8FA4FF00F090DF521503A46203079
:100500004FF416534FF4A051CDF8009000F034F999
:1005100078230598CDF8009007F51652402100F099
:100520002BF906F516520DF5215132A82032203153
:1005300004F0E8F932AA1046059904F071FC0DF5B3
:100540001F5032A9183005F0E1F842F2A051002204
:100550000323CDE9021206A800933022002301955F
:1005600000F06CF9042306AA204600934FF4A05132
:10057000102307F05DF8062306AA12A80093402175
:10058000102307F055F80DF5A04006F12002603069
:100590004FF416534FF4A051CDF8009000F0ECF852
:1005A0000DF5A04112AB2246603132A804F0D8F913
:1005B00005230DF5A04006AA603000934FF4A0512A
:1005C000102307F035F80DF5A04052462146603063
:1005D00004F04AF90DF51F51183172A804F050FECD
:1005E00072AA104632A904F0EBF92846394642F2C5
:1005F000F85207F077FA0DF5A04360331A6822F03D
:10060000802243F8042BA342F8D107F51751383163
:1006100010220EA807F034FA58B90DF5A0410DF5D7
:100620002150603120304FF4205207F029FA002881
:1006300039D030687168B268F36805F517570EAEA7
:1006400038370FC796E80F0005F51856083686E8C4
:100650000F0042F21866002707231022404600933D
:1006600001950023CDE9026700F0E8F820464FF439
:10067000206100F0D9F812A8202100F0D5F832A8A6
:10068000202100F0D1F806A8082100F0CDF805F5EA
:1006900017503830082100F0C7F800200DF5204D24
:1006A00018B0BDE8F08772A90598802207F0E8F934
:1006B0000028BED10AAF0FCF05F5175638360FC642
:1006C00097E80F0086E80F00C3E700BF2DE9F04F61
:1006D00085B00C4603919046002122461F460290A9
:1006E0009DF8389007F098FA002C3DD00024A646DB
:1006F000A44601944FF0010B674502D834D19CB356
:10070000BC46029A019D505D02EB050A0022C2F12F
:100710000806B4422146A8BF31460BFA01F5631A18
:10072000013DADB24EFA03F32B40761ADBB2C9B2EB
:10073000B340641A1844E4B2C0B2A5400A448AF82F
:1007400000002EEA050ED2B234B9674506D938F852
:100750001CE04C460CF1010C072AD8D9082A06D017
:10076000039B019A9342C7D805B0BDE8F08F019B67
:1007700001330193F4E700BF2DE9F04F85B00C463B
:100780000291904600216200994603909DF83870CE
:1007900007F042FA002C40D00024A646A44601945B
:1007A0004FF0010BE14503D837D1002C35D0CC46B2
:1007B000002F35D0039A019802EB400A32F810005E
:1007C0000022BE1AB4422146A8BF31460BFA01F5F9
:1007D000631A013DADB24EFA03F32B40761ADBB239
:1007E000C9B2B340641A1844E4B280B2A5400A44C6
:1007F000AAF800002EEA050ED2B234B9E14506D9B6
:1008000018F80CE008240CF1010C9742D9D8974253
:1008100006D0029B019A9342C4D805B0BDE8F08F80
:10082000019B01330193F4E731B100EB8101002317
:1008300040F8043B8842FBD1704700BF2DE9F04FE0
:10084000E7B00021BDF8C0B1719E8246904699463E
:10085000C82272AB02A8D3E9004507F0DDF94FEAE0
:100860001B238DF8073010230027A8228DF80530B0
:10087000012369468DF8012002A88DF800308DF81B
:1008800002308DF804303A4608238DF806B08DF812
:10089000037005F035F902A805F0B2FC002D08BF81
:1008A000A82C13D3A83C31464FF0A8034FF0000208
:1008B00002A845F1FF3505F023F902A805F0A0FCD8
:1008C000002D08BFA82C06F1A806EBD234A8A82258
:1008D000002107F0A1F954EA050304D0314622466D
:1008E00034A807F0FFF834AB1C44042323709DF8B0
:1008F0007741A823002234A902A864F07F048DF870
:10090000774105F0FDF80023A8224046494606F04D
:100910002BFF06460F4656EA07033AD004460D461B
:10092000D34614F1FF3402A845F1FF3505F068FC09
:10093000A8235946002202A89B4405F061FA54EA14
:100940000503EED140464946A822002306F00CFFDD
:1009500014461D4654EA050302D167B0BDE8F08F86
:10096000A82702A805F04CFC3B4602A8002234A9A7
:1009700007FB06F605F044FA54EA050314BF2246C5
:10098000012234A90AEB060007F0ACF867B0BDE815
:10099000F08F40464946A822002306F0E5FE1446A3
:1009A0001D4654EA0503D8D002A805F029FC02A888
:1009B000A823002234A905F023FA0026DCE700BFB3
:1009C000FEE700BF08B50C480C4B984207D2C24363
:1009D0001A4422F003020432094907F083F8094857
:1009E00009494FF000028842B8BF40F8042BFADBF7
:1009F000BDE8084000F0ACBB000000205C04002013
:100A00007C7D00085C040020700400202DE9F45F68
:100A1000148855889688D788B2F80880B2F80A906A
:100A2000B2F80CA0B2F80EB04FEA530350F8042B02
:100A3000B1E8005002FB0C444FEA1C4C02FB0C5581
:100A400002FB0E664FEA1E4E02FB0E77B1E8005025
:100A500002FB0C884FEA1C4C02FB0C9902FB0EAA0D
:100A60004FEA1E4E02FB0EBB4FEA1242B1E80050A5
:100A700002FB0C444FEA1C4C02FB0C5502FB0E66B9
:100A80004FEA1E4E02FB0E77B1E8005002FB0C88C5
:100A90004FEA1C4C02FB0C9902FB0EAA4FEA1E4EB9
:100AA00002FB0EBB013BC1D104BC14805580968073
:100AB000D780A2F80880A2F80A90A2F80CA0A2F8A9
:100AC0000EB0BDE8F05F70472DE9FE5F14885588D1
:100AD0009688D788B2F80880B2F80A90B2F80CA0CD
:100AE000B2F80EB04FEA530350F8042BB1E80050AF
:100AF00002FB0C444FEA1C4C02FB0C5502FB0E6639
:100B00004FEA1E4E02FB0E77B1E8005002FB0C8844
:100B10004FEA1C4C02FB0C9902FB0EAA4FEA1E4E38
:100B200002FB0EBB4FEA1242B1E8005002FB0C443C
:100B30004FEA1C4C02FB0C5502FB0E664FEA1E4EA0
:100B400002FB0E77B1E8005002FB0C884FEA1C4C08
:100B500002FB0C9902FB0EAA4FEA1E4E02FB0EBBD3
:100B6000013BC1D10EBC148055809680D780A2F87D
:100B70000880A2F80A90A2F80CA0A2F80EB01A44BD
:100B80001A440EB4148855889688D788B2F808801D
:100B9000B2F80A90B2F80CA0B2F80EB04FEA5303C4
:100BA00050F8042BB1E8005002FB0C444FEA1C4CF7
:100BB00002FB0C5502FB0E664FEA1E4E02FB0E773F
:100BC000B1E8005002FB0C884FEA1C4C02FB0C9968
:100BD00002FB0EAA4FEA1E4E02FB0EBB4FEA124268
:100BE000B1E8005002FB0C444FEA1C4C02FB0C55D0
:100BF00002FB0E664FEA1E4E02FB0E77B1E8005074
:100C000002FB0C884FEA1C4C02FB0C9902FB0EAA5B
:100C10004FEA1E4E02FB0EBB013BC1D10EBC14803D
:100C200055809680D780A2F80880A2F80A90A2F892
:100C30000CA0A2F80EB01A441A440EB414885588B9
:100C40009688D788B2F80880B2F80A90B2F80CA05B
:100C5000B2F80EB04FEA530350F8042BB1E800503D
:100C600002FB0C444FEA1C4C02FB0C5502FB0E66C7
:100C70004FEA1E4E02FB0E77B1E8005002FB0C88D3
:100C80004FEA1C4C02FB0C9902FB0EAA4FEA1E4EC7
:100C900002FB0EBB4FEA1242B1E8005002FB0C44CB
:100CA0004FEA1C4C02FB0C5502FB0E664FEA1E4E2F
:100CB00002FB0E77B1E8005002FB0C884FEA1C4C97
:100CC00002FB0C9902FB0EAA4FEA1E4E02FB0EBB62
:100CD000013BC1D10EBC148055809680D780A2F80C
:100CE0000880A2F80A90A2F80CA0A2F80EB01A444C
:100CF0001A440EB4148855889688D788B2F80880AC
:100D0000B2F80A90B2F80CA0B2F80EB04FEA530352
:100D100050F8042BB1E8005002FB0C444FEA1C4C85
:100D200002FB0C5502FB0E664FEA1E4E02FB0E77CD
:100D3000B1E8005002FB0C884FEA1C4C02FB0C99F6
:100D400002FB0EAA4FEA1E4E02FB0EBB4FEA1242F6
:100D5000B1E8005002FB0C444FEA1C4C02FB0C555E
:100D600002FB0E664FEA1E4E02FB0E77B1E8005002
:100D700002FB0C884FEA1C4C02FB0C9902FB0EAAEA
:100D80004FEA1E4E02FB0EBB013BC1D10EBC1480CC
:100D900055809680D780A2F80880A2F80A90A2F821
:100DA0000CA0A2F80EB01A441A440EB41488558848
:100DB0009688D788B2F80880B2F80A90B2F80CA0EA
:100DC000B2F80EB04FEA530350F8042BB1E80050CC
:100DD00002FB0C444FEA1C4C02FB0C5502FB0E6656
:100DE0004FEA1E4E02FB0E77B1E8005002FB0C8862
:100DF0004FEA1C4C02FB0C9902FB0EAA4FEA1E4E56
:100E000002FB0EBB4FEA1242B1E8005002FB0C4459
:100E10004FEA1C4C02FB0C5502FB0E664FEA1E4EBD
:100E200002FB0E77B1E8005002FB0C884FEA1C4C25
:100E300002FB0C9902FB0EAA4FEA1E4E02FB0EBBF0
:100E4000013BC1D10EBC148055809680D780A2F89A
:100E50000880A2F80A90A2F80CA0A2F80EB01A44DA
:100E60001A440EB4148855889688D788B2F808803A
:100E7000B2F80A90B2F80CA0B2F80EB04FEA5303E1
:100E800050F8042BB1E8005002FB0C444FEA1C4C14
:100E900002FB0C5502FB0E664FEA1E4E02FB0E775C
:100EA000B1E8005002FB0C884FEA1C4C02FB0C9985
:100EB00002FB0EAA4FEA1E4E02FB0EBB4FEA124285
:100EC000B1E8005002FB0C444FEA1C4C02FB0C55ED
:100ED00002FB0E664FEA1E4E02FB0E77B1E8005091
:100EE00002FB0C884FEA1C4C02FB0C9902FB0EAA79
:100EF0004FEA1E4E02FB0EBB013BC1D10EBC14805B
:100F000055809680D780A2F80880A2F80A90A2F8AF
:100F10000CA0A2F80EB01A441A440EB414885588D6
:100F20009688D788B2F80880B2F80A90B2F80CA078
:100F3000B2F80EB04FEA530350F8042BB1E800505A
:100F400002FB0C444FEA1C4C02FB0C5502FB0E66E4
:100F50004FEA1E4E02FB0E77B1E8005002FB0C88F0
:100F60004FEA1C4C02FB0C9902FB0EAA4FEA1E4EE4
:100F700002FB0EBB4FEA1242B1E8005002FB0C44E8
:100F80004FEA1C4C02FB0C5502FB0E664FEA1E4E4C
:100F900002FB0E77B1E8005002FB0C884FEA1C4CB4
:100FA00002FB0C9902FB0EAA4FEA1E4E02FB0EBB7F
:100FB000013BC1D10EBC148055809680D780A2F829
:100FC0000880A2F80A90A2F80CA0A2F80EB01A4469
:100FD0001A440EB4148855889688D788B2F80880C9
:100FE000B2F80A90B2F80CA0B2F80EB04FEA530370
:100FF00050F8042BB1E8005002FB0C444FEA1C4CA3
:1010000002FB0C5502FB0E664FEA1E4E02FB0E77EA
:10101000B1E8005002FB0C884FEA1C4C02FB0C9913
:1010200002FB0EAA4FEA1E4E02FB0EBB4FEA124213
:10103000B1E8005002FB0C444FEA1C4C02FB0C557B
:1010400002FB0E664FEA1E4E02FB0E77B1E800501F
:1010500002FB0C884FEA1C4C02FB0C9902FB0EAA07
:101060004FEA1E4E02FB0EBB013BC1D10EBC1480E9
:1010700055809680D780A2F80880A2F80A90A2F83E
:101080000CA0A2F80EB0BDE8F05F7047F0B5ADF56A
:10109000194D97B0274803F063FB274803F074FB12
:1010A0000321264803F05CFB032400F067F80DF5EC
:1010B0009741383108A8FFF785F800F073F8054626
:1010C00000F05CF80DF5165008AA69463030FFF7BD
:1010D000E5F800F067F8064600F050F80DF5974285
:1010E0000DF516513832303104A8FFF7C3F900F07E
:1010F00059F810220DEB02010746684606F0C0FCC5
:101100003B463246294678B90D4803F029FB013C9D
:10111000CBD10C4803F038FB0B4803F035FB012022
:101120000DF5194D17B0F0BD084803F02DFB002058
:10113000F6E700BFB47C0008C47C0008D07C00083F
:10114000FC7C0008247D00084C7D0008E87C000839
:1011500008B504F07BFB06F043FAFFF797FFFEE7C4
:1011600029B9054A536B23EA000050637047024BCC
:101170005A6B10435863704700380240084A1168A0
:1011800050680B68926810B443F0807300240B60C1
:101190000460136810BC43F001031360704700BF84
:1011A00000000020014B5B681868704700000020B9
:1011B00063A5C6637C84F87C7799EE777B8DF67B9C
:1011C000F20DFFF26BBDD66B6FB1DE6FC55491C5EA
:1011D000305060300103020167A9CE672B7D562B8A
:1011E000FE19E7FED762B5D7ABE64DAB769AEC7643
:1011F000CA458FCA829D1F82C94089C97D87FA7DF1
:10120000FA15EFFA59EBB25947C98E47F00BFBF0CC
:10121000ADEC41ADD467B3D4A2FD5FA2AFEA45AF58
:101220009CBF239CA4F753A47296E472C05B9BC03E
:10123000B7C275B7FD1CE1FD93AE3D93266A4C26FF
:10124000365A6C363F417E3FF702F5F7CC4F83CCE0
:10125000345C6834A5F451A5E534D1E5F108F9F121
:101260007193E271D873ABD831536231153F2A15AF
:10127000040C0804C75295C723654623C35E9DC36B
:101280001828301896A13796050F0A059AB52F9A97
:1012900007090E0712362412809B1B80E23DDFE215
:1012A000EB26CDEB27694E27B2CD7FB2759FEA754D
:1012B000091B1209839E1D832C74582C1A2E341A74
:1012C0001B2D361B6EB2DC6E5AEEB45AA0FB5BA02F
:1012D00052F6A4523B4D763BD661B7D6B3CE7DB322
:1012E000297B5229E33EDDE32F715E2F849713841F
:1012F00053F5A653D168B9D100000000ED2CC1ED23
:1013000020604020FC1FE3FCB1C879B15BEDB65B07
:101310006ABED46ACB468DCBBED967BE394B723913
:101320004ADE944A4CD4984C58E8B058CF4A85CFFE
:10133000D06BBBD0EF2AC5EFAAE54FAAFB16EDFB99
:1013400043C586434DD79A4D3355663385941185F1
:1013500045CF8A45F910E9F9020604027F81FE7F34
:1013600050F0A0503C44783C9FBA259FA8E34BA87E
:1013700051F3A251A3FE5DA340C080408F8A058F28
:1013800092AD3F929DBC219D38487038F504F1F52F
:10139000BCDF63BCB6C177B6DA75AFDA2163422130
:1013A00010302010FF1AE5FFF30EFDF3D26DBFD20F
:1013B000CD4C81CD0C14180C13352613EC2FC3EC37
:1013C0005FE1BE5F97A2359744CC884417392E174A
:1013D000C45793C4A7F255A77E82FC7E3D477A3D51
:1013E00064ACC8645DE7BA5D192B32197395E67376
:1013F00060A0C060819819814FD19E4FDC7FA3DC33
:10140000226644222A7E542A90AB3B9088830B8824
:1014100046CA8C46EE29C7EEB8D36BB8143C2814E4
:10142000DE79A7DE5EE2BC5E0B1D160BDB76ADDB64
:10143000E03BDBE0325664323A4E743A0A1E140A3C
:1014400049DB9249060A0C06246C48245CE4B85C2B
:10145000C25D9FC2D36EBDD3ACEF43AC62A6C46283
:1014600091A8399195A43195E437D3E4798BF27939
:10147000E732D5E7C8438BC837596E376DB7DA6D99
:101480008D8C018DD564B1D54ED29C4EA9E049A971
:101490006CB4D86C56FAAC56F407F3F4EA25CFEAEC
:1014A00065AFCA657A8EF47AAEE947AE08181008BF
:1014B000BAD56FBA7888F078256F4A252E725C2EDF
:1014C0001C24381CA6F157A6B4C773B4C65197C6DE
:1014D000E823CBE8DD7CA1DD749CE8741F213E1F6E
:1014E0004BDD964BBDDC61BD8B860D8B8A850F8AEB
:1014F0007090E0703E427C3EB5C471B566AACC6681
:1015000048D8904803050603F601F7F60E121C0EA4
:1015100061A3C261355F6A3557F9AE57B9D069B971
:1015200086911786C15899C11D273A1D9EB9279EDD
:10153000E138D9E1F813EBF898B32B981133221165
:1015400069BBD269D970A9D98E89078E94A73394C3
:101550009BB62D9B1E223C1E87921587E920C9E968
:10156000CE4987CE55FFAA5528785028DF7AA5DFC7
:101570008C8F038CA1F859A1898009890D171A0D48
:10158000BFDA65BFE631D7E642C6844268B8D068A4
:1015900041C3824199B029992D775A2D0F111E0F01
:1015A000B0CB7BB054FCA854BBD66DBB163A2C16FE
:1015B0002DE9F00F90E8F000AFF20C435FFA97F8D6
:1015C0005FFAA7F95FFAB7FA5FFA87FB53F828804A
:1015D00053F8299053F82AA053F82BB008F0FF08CD
:1015E00009F0FF090AF0FF0A84F0010484EA080404
:1015F00084EA092484EA0A4484EA0B6485EA04053F
:1016000086EA050687EA06070C604D608E60CF60AB
:101610005FFA97F85FFAA7F95FFAB7FA5FFA87FB04
:1016200053F8288053F8299053F82AA053F82BB088
:1016300008F0FF0809F0FF090AF0FF0A84F002042D
:1016400084EA080484EA092484EA0A4484EA0B64EC
:1016500085EA040586EA050687EA06070C614D61FE
:101660008E61CF615FFA97F85FFAA7F95FFAB7FA70
:101670005FFA87FB53F8288053F8299053F82AA083
:1016800053F82BB008F0FF0809F0FF090AF0FF0A31
:1016900084F0040484EA080484EA092484EA0A44FD
:1016A00084EA0B6485EA040586EA050687EA0607EC
:1016B0000C624D628E62CF625FFA97F85FFAA7F90B
:1016C0005FFAB7FA5FFA87FB53F8288053F829903E
:1016D00053F82AA053F82BB008F0FF0809F0FF09CF
:1016E0000AF0FF0A84F0080484EA080484EA092462
:1016F00084EA0A4484EA0B6485EA040586EA05065E
:1017000087EA06070C634D638E63CF635FFA97F831
:101710005FFAA7F95FFAB7FA5FFA87FB53F82880F8
:1017200053F8299053F82AA053F82BB008F0FF087B
:1017300009F0FF090AF0FF0A84F0100484EA0804A3
:1017400084EA092484EA0A4484EA0B6485EA0405ED
:1017500086EA050687EA06070C644D648E64CF644A
:101760005FFA97F85FFAA7F95FFAB7FA5FFA87FBB3
:1017700053F8288053F8299053F82AA053F82BB037
:1017800008F0FF0809F0FF090AF0FF0A84F02004BE
:1017900084EA080484EA092484EA0A4484EA0B649B
:1017A00085EA040586EA050687EA06070C654D65A5
:1017B0008E65CF655FFA97F85FFAA7F95FFAB7FA17
:1017C0005FFA87FB53F8288053F8299053F82AA032
:1017D00053F82BB008F0FF0809F0FF090AF0FF0AE0
:1017E00084F0400484EA080484EA092484EA0A4470
:1017F00084EA0B6485EA040586EA050687EA06079B
:101800000C664D668E66CF665FFA97F85FFAA7F9A9
:101810005FFAB7FA5FFA87FB53F8288053F82990EC
:1018200053F82AA053F82BB008F0FF0809F0FF097D
:101830000AF0FF0A84F0800484EA080484EA092498
:1018400084EA0A4484EA0B6485EA040586EA05060C
:1018500087EA06070C674D678E67CF6701F1800145
:101860005FFA97F85FFAA7F95FFAB7FA5FFA87FBB2
:1018700053F8288053F8299053F82AA053F82BB036
:1018800008F0FF0809F0FF090AF0FF0A84F01B04C2
:1018900084EA080484EA092484EA0A4484EA0B649A
:1018A00085EA040586EA050687EA06070C604D60AE
:1018B0008E60CF605FFA97F85FFAA7F95FFAB7FA20
:1018C0005FFA87FB53F8288053F8299053F82AA031
:1018D00053F82BB008F0FF0809F0FF090AF0FF0ADF
:1018E00084F0360484EA080484EA092484EA0A4479
:1018F00084EA0B6485EA040586EA050687EA06079A
:101900000C614D618E61CF61BDE8F00F704700BF83
:101910002DE9F45F91E8F000B0E8000F4FEA000E07
:10192000AFF2747C84EA080485EA090586EA0A06AF
:1019300087EA0B07BEE8000FE0B2E9B2F2B2FBB2F1
:101940005CF820005CF821105CF822205CF8233061
:1019500088EA304889EA31498AEA324A8BEA334BCD
:101960005FFA95F05FFA96F15FFA97F25FFA94F3F7
:101970005CF820005CF821105CF822205CF8233031
:1019800088EA302889EA31298AEA322A8BEA332B1D
:101990005FFAA6F05FFAA7F15FFAA4F25FFAA5F387
:1019A0005CF820005CF821105CF822205CF8233001
:1019B00088EA000889EA01098AEA020A8BEA030B2D
:1019C0005FFAB7F05FFAB4F15FFAB5F25FFAB6F317
:1019D0005CF820005CF821105CF822205CF82330D1
:1019E00088EA306889EA31698AEA326A8BEA336BBD
:1019F000BEE8F0005FFA88F05FFA89F15FFA8AF2D8
:101A00005FFA8BF35CF820005CF821105CF8222070
:101A10005CF8233084EA304485EA314586EA324670
:101A200087EA33475FFA99F05FFA9AF15FFA9BF21F
:101A30005FFA98F35CF820005CF821105CF8222033
:101A40005CF8233084EA302485EA312586EA3226A0
:101A500087EA33275FFAAAF05FFAABF15FFAA8F2E0
:101A60005FFAA9F35CF820005CF821105CF82220F2
:101A70005CF8233084EA000485EA010586EA020660
:101A800087EA03075FFABBF05FFAB8F15FFAB9F2D1
:101A90005FFABAF35CF820005CF821105CF82220B1
:101AA0005CF8233084EA306485EA316586EA326680
:101AB00087EA3367BEE8000FE0B2E9B2F2B2FBB2E8
:101AC0005CF820005CF821105CF822205CF82330E0
:101AD00088EA304889EA31498AEA324A8BEA334B4C
:101AE0005FFA95F05FFA96F15FFA97F25FFA94F376
:101AF0005CF820005CF821105CF822205CF82330B0
:101B000088EA302889EA31298AEA322A8BEA332B9B
:101B10005FFAA6F05FFAA7F15FFAA4F25FFAA5F305
:101B20005CF820005CF821105CF822205CF823307F
:101B300088EA000889EA01098AEA020A8BEA030BAB
:101B40005FFAB7F05FFAB4F15FFAB5F25FFAB6F395
:101B50005CF820005CF821105CF822205CF823304F
:101B600088EA306889EA31698AEA326A8BEA336B3B
:101B7000BEE8F0005FFA88F05FFA89F15FFA8AF256
:101B80005FFA8BF35CF820005CF821105CF82220EF
:101B90005CF8233084EA304485EA314586EA3246EF
:101BA00087EA33475FFA99F05FFA9AF15FFA9BF29E
:101BB0005FFA98F35CF820005CF821105CF82220B2
:101BC0005CF8233084EA302485EA312586EA32261F
:101BD00087EA33275FFAAAF05FFAABF15FFAA8F25F
:101BE0005FFAA9F35CF820005CF821105CF8222071
:101BF0005CF8233084EA000485EA010586EA0206DF
:101C000087EA03075FFABBF05FFAB8F15FFAB9F24F
:101C10005FFABAF35CF820005CF821105CF822202F
:101C20005CF8233084EA306485EA316586EA3266FE
:101C300087EA3367BEE8000FE0B2E9B2F2B2FBB266
:101C40005CF820005CF821105CF822205CF823305E
:101C500088EA304889EA31498AEA324A8BEA334BCA
:101C60005FFA95F05FFA96F15FFA97F25FFA94F3F4
:101C70005CF820005CF821105CF822205CF823302E
:101C800088EA302889EA31298AEA322A8BEA332B1A
:101C90005FFAA6F05FFAA7F15FFAA4F25FFAA5F384
:101CA0005CF820005CF821105CF822205CF82330FE
:101CB00088EA000889EA01098AEA020A8BEA030B2A
:101CC0005FFAB7F05FFAB4F15FFAB5F25FFAB6F314
:101CD0005CF820005CF821105CF822205CF82330CE
:101CE00088EA306889EA31698AEA326A8BEA336BBA
:101CF000BEE8F0005FFA88F05FFA89F15FFA8AF2D5
:101D00005FFA8BF35CF820005CF821105CF822206D
:101D10005CF8233084EA304485EA314586EA32466D
:101D200087EA33475FFA99F05FFA9AF15FFA9BF21C
:101D30005FFA98F35CF820005CF821105CF8222030
:101D40005CF8233084EA302485EA312586EA32269D
:101D500087EA33275FFAAAF05FFAABF15FFAA8F2DD
:101D60005FFAA9F35CF820005CF821105CF82220EF
:101D70005CF8233084EA000485EA010586EA02065D
:101D800087EA03075FFABBF05FFAB8F15FFAB9F2CE
:101D90005FFABAF35CF820005CF821105CF82220AE
:101DA0005CF8233084EA306485EA316586EA32667D
:101DB00087EA3367BEE8000FE0B2E9B2F2B2FBB2E5
:101DC0005CF820005CF821105CF822205CF82330DD
:101DD00088EA304889EA31498AEA324A8BEA334B49
:101DE0005FFA95F05FFA96F15FFA97F25FFA94F373
:101DF0005CF820005CF821105CF822205CF82330AD
:101E000088EA302889EA31298AEA322A8BEA332B98
:101E10005FFAA6F05FFAA7F15FFAA4F25FFAA5F302
:101E20005CF820005CF821105CF822205CF823307C
:101E300088EA000889EA01098AEA020A8BEA030BA8
:101E40005FFAB7F05FFAB4F15FFAB5F25FFAB6F392
:101E50005CF820005CF821105CF822205CF823304C
:101E600088EA306889EA31698AEA326A8BEA336B38
:101E7000BEE8F0005FFA88F05FFA89F15FFA8AF253
:101E80005FFA8BF35CF820005CF821105CF82220EC
:101E90005CF8233084EA304485EA314586EA3246EC
:101EA00087EA33475FFA99F05FFA9AF15FFA9BF29B
:101EB0005FFA98F35CF820005CF821105CF82220AF
:101EC0005CF8233084EA302485EA312586EA32261C
:101ED00087EA33275FFAAAF05FFAABF15FFAA8F25C
:101EE0005FFAA9F35CF820005CF821105CF822206E
:101EF0005CF8233084EA000485EA010586EA0206DC
:101F000087EA03075FFABBF05FFAB8F15FFAB9F24C
:101F10005FFABAF35CF820005CF821105CF822202C
:101F20005CF8233084EA306485EA316586EA3266FB
:101F300087EA3367BEE8000FE0B2E9B2F2B2FBB263
:101F40005CF820005CF821105CF822205CF823305B
:101F500088EA304889EA31498AEA324A8BEA334BC7
:101F60005FFA95F05FFA96F15FFA97F25FFA94F3F1
:101F70005CF820005CF821105CF822205CF823302B
:101F800088EA302889EA31298AEA322A8BEA332B17
:101F90005FFAA6F05FFAA7F15FFAA4F25FFAA5F381
:101FA0005CF820005CF821105CF822205CF82330FB
:101FB00088EA000889EA01098AEA020A8BEA030B27
:101FC0005FFAB7F05FFAB4F15FFAB5F25FFAB6F311
:101FD0005CF820005CF821105CF822205CF82330CB
:101FE00088EA306889EA31698AEA326A8BEA336BB7
:101FF0005FFABBF05FFAB8F15FFAB9F25FFABAF3D1
:102000005CF820405CF821505CF822605CF823709A
:102010005FFAAAF05FFAABF15FFAA8F25FFAA9F3F0
:102020005CF820005CF821105CF822205CF823307A
:1020300060F31F6461F31F6562F31F6663F31F673C
:102040005FFA88F05FFA89F15FFA8AF25FFA8BF340
:102050005CF820005CF821105CF822205CF823304A
:1020600060F30F2461F30F2562F30F2663F30F274C
:102070005FFA99F05FFA9AF15FFA9BF25FFA98F3D0
:102080005CF820005CF821105CF822205CF823301A
:1020900060F3174461F3174562F3174663F317477C
:1020A000BEE80F0080EA342081EA352182EA362238
:1020B0005DF8044B83EA372384E80F00BDE8F05F46
:1020C000704700BFAFF30080AFF30080AFF3008034
:1020D000A75051F465537E41A4C31A175E963A2760
:1020E0006BCB3BAB45F11F9D58ABACFA03934BE375
:1020F000FA5520306DF6AD76769188CC4C25F502F8
:10210000D7FC4FE5CBD7C52A44802635A38FB562CF
:102110005A49DEB11B6725BA0E9845EAC0E15DFE5B
:102120007502C32FF012814C97A38D46F9C66BD36D
:102130005FE7038F9C9515927AEBBF6D59DA955244
:10214000832DD4BE21D35874692949E0C8448EC96F
:10215000896A75C27978F48E3E6B995871DD27B91A
:102160004FB6BEE1AD17F088AC66C9203AB47DCE5B
:102170004A1863DF3182E51A336097517F45625315
:1021800077E0B164AE84BB6BA01CFE812B94F90890
:1021900068587048FD198F456C8794DEF8B7527BFC
:1021A000D323AB7302E2724B8F57E31FAB2A665502
:1021B0002807B2EBC2032FB57B9A86C508A5D33793
:1021C00087F23028A5B223BF6ABA0203825CED16FB
:1021D0001C2B8ACFB492A779F2F0F307E2A14E69E3
:1021E000F4CD65DABED50605621FD134FE8AC4A6D9
:1021F000539D342E55A0A2F3E132058AEB75A4F667
:10220000EC390B83EFAA40609F065E711051BD6EE2
:102210008AF93E21063D96DD05AEDD3EBD464DE622
:102220008DB591545D0571C4D46F040615FF6050DF
:10223000FB241998E997D6BD43CC89409E7767D98E
:1022400042BDB0E88B8807895B38E719EEDB79C8B7
:102250000A47A17C0FE97C421EC9F88400000000F7
:1022600086830980ED48322B70AC1E11724E6C5A79
:10227000FFFBFD0E38560F85D51E3DAE3927362D96
:10228000D9640A0FA621685C54D19B5B2E3A243690
:1022900067B10C0AE70F935796D2B4EE919E1B9B41
:1022A000C54F80C020A261DC4B695A771A161C12F8
:1022B000BA0AE2932AE5C0A0E0433C22171D121B94
:1022C0000D0B0E09C7ADF28BA8B92DB6A9C8141E07
:1022D000198557F1074CAF75DDBBEE9960FDA37F03
:1022E000269FF701F5BC5C723BC544667E345BFB00
:1022F00029768B43C6DCCB23FC68B6EDF163B8E4EA
:10230000DCCAD7318510426322401397112084C65E
:10231000247D854A3DF8D2BB3211AEF9A16DC729A3
:102320002F4B1D9E30F3DCB252EC0D86E3D077C10B
:10233000166C2BB3B999A97048FA1194642247E935
:102340008CC4A8FC3F1AA0F02CD8567D90EF223305
:102350004EC78749D1C1D938A2FE8CCA0B3698D452
:1023600081CFA6F5DE28A57A8E26DAB7BFA43FADC9
:102370009DE42C3A920D5078CC9B6A5F4662547E65
:1023800013C2F68DB8E890D8F75E2E39AFF582C348
:1023900080BE9F5D937C69D02DA96FD512B3CF25E8
:1023A000993BC8AC7DA71018636EE89CBB7BDB3BF8
:1023B0007809CD2618F46E59B701EC9A9AA8834F84
:1023C0006E65E695E67EAAFFCF0821BCE8E6EF152C
:1023D0009BD9BAE736CE4A6F09D4EA9F7CD629B09A
:1023E000B2AF31A423312A3F9430C6A566C035A2CE
:1023F000BC37744ECAA6FC82D0B0E090D81533A783
:10240000984AF104DAF741EC500E7FCDF62F179180
:10241000D68D764DB04D43EF4D54CCAA04DFE496F3
:10242000B5E39ED1881B4C6A1FB8C12C517F46650D
:10243000EA049D5E355D018C7473FA87412EFB0BB7
:102440001D5AB367D25292DB5633E91047136DD64B
:10245000618C9AD70C7A37A1148E59F83C89EB130A
:1024600027EECEA9C935B761E5EDE11CB13C7A474D
:10247000DF599CD2733F55F2CE79181437BF73C71A
:10248000CDEA53F7AA5B5FFD6F14DF3DDB8678442E
:10249000F381CAAFC43EB968342C3824405FC2A36C
:1024A000C372161D250CBCE2498B283C9541FF0DDB
:1024B000017139A8B3DE080CE49CD8B4C19064560D
:1024C00084617BCBB670D5325C74486C5742D0B80F
:1024D00052000000090000006A000000D500000062
:1024E0003000000036000000A500000038000000A9
:1024F000BF00000040000000A30000009E0000009C
:1025000081000000F3000000D7000000FB00000085
:102510007C000000E30000003900000082000000A1
:102520009B0000002F000000FF000000870000005B
:10253000340000008E000000430000004400000052
:10254000C4000000DE000000E9000000CB00000035
:10255000540000007B0000009400000032000000E6
:10256000A6000000C2000000230000003D000000A3
:10257000EE0000004C000000950000000B00000081
:1025800042000000FA000000C30000004E000000FE
:10259000080000002E000000A100000066000000FE
:1025A00028000000D900000024000000B200000054
:1025B000760000005B000000A2000000490000005F
:1025C0006D0000008B000000D1000000250000001D
:1025D00072000000F8000000F60000006400000037
:1025E000860000006800000098000000160000004F
:1025F000D4000000A40000005C000000CC0000003B
:102600005D00000065000000B600000092000000C0
:102610006C00000070000000480000005000000046
:10262000FD000000ED000000B9000000DA0000002D
:102630005E0000001500000046000000570000008A
:10264000A70000008D0000009D0000008400000035
:1026500090000000D8000000AB0000000000000067
:102660008C000000BC000000D30000000A00000045
:10267000F7000000E4000000580000000500000022
:10268000B8000000B3000000450000000600000094
:10269000D00000002C0000001E0000008F00000091
:1026A000CA0000003F0000000F0000000200000010
:1026B000C1000000AF000000BD00000003000000EA
:1026C00001000000130000008A0000006B00000001
:1026D0003A000000910000001100000041000000DD
:1026E0004F00000067000000DC000000EA0000006E
:1026F00097000000F2000000CF000000CE000000B4
:10270000F0000000B4000000E600000073000000CC
:1027100096000000AC0000007400000022000000E1
:10272000E7000000AD00000035000000850000005B
:10273000E2000000F900000037000000E80000009F
:102740001C00000075000000DF0000006E000000AB
:1027500047000000F10000001A00000071000000B6
:102760001D00000029000000C500000089000000D5
:102770006F000000B7000000620000000E000000C3
:10278000AA00000018000000BE0000001B000000AE
:10279000FC000000560000003E0000004B0000005E
:1027A000C6000000D20000007900000020000000F8
:1027B0009A000000DB000000C0000000FE000000E6
:1027C00078000000CD0000005A000000F400000076
:1027D0001F000000DD000000A80000003300000022
:1027E0008800000007000000C70000003100000062
:1027F000B1000000120000001000000059000000AD
:102800002700000080000000EC0000005F000000D6
:1028100060000000510000007F000000A9000000DF
:1028200019000000B50000004A0000000D00000083
:102830002D000000E50000007A0000009F0000006D
:1028400093000000C90000009C000000EF000000A1
:10285000A0000000E00000003B0000004D00000070
:10286000AE0000002A000000F5000000B0000000EB
:10287000C8000000EB000000BB0000003C000000AE
:102880008300000053000000990000006100000078
:10289000170000002B000000040000007E00000074
:1028A000BA00000077000000D600000026000000FB
:1028B000E100000069000000140000006300000057
:1028C00055000000210000000C0000007D00000009
:1028D0002DE9F00F90E8F000AFF60C02DFF84C3E67
:1028E0005FFA97F85FFAA7F95FFAB7FA5FFA87FB22
:1028F00053F8288053F8299053F82AA053F82BB0A6
:1029000008F0FF0809F0FF090AF0FF0A84F001044B
:1029100084EA080484EA092484EA0A4484EA0B6409
:1029200085EA040586EA050687EA06072DE9F00030
:102930005FFA97F85FFAA7F95FFAB7FA5FFA87FBD1
:1029400053F8288053F8299053F82AA053F82BB055
:1029500008F0FF0809F0FF090AF0FF0A84F00204FA
:1029600084EA080484EA092484EA0A4484EA0B64B9
:1029700085EA040586EA050687EA06072DE9F000E0
:102980005FFA97F85FFAA7F95FFAB7FA5FFA87FB81
:1029900053F8288053F8299053F82AA053F82BB005
:1029A00008F0FF0809F0FF090AF0FF0A84F00404A8
:1029B00084EA080484EA092484EA0A4484EA0B6469
:1029C00085EA040586EA050687EA06072DE9F00090
:1029D0005FFA97F85FFAA7F95FFAB7FA5FFA87FB31
:1029E00053F8288053F8299053F82AA053F82BB0B5
:1029F00008F0FF0809F0FF090AF0FF0A84F0080454
:102A000084EA080484EA092484EA0A4484EA0B6418
:102A100085EA040586EA050687EA06072DE9F0003F
:102A20005FFA97F85FFAA7F95FFAB7FA5FFA87FBE0
:102A300053F8288053F8299053F82AA053F82BB064
:102A400008F0FF0809F0FF090AF0FF0A84F01004FB
:102A500084EA080484EA092484EA0A4484EA0B64C8
:102A600085EA040586EA050687EA06072DE9F000EF
:102A70005FFA97F85FFAA7F95FFAB7FA5FFA87FB90
:102A800053F8288053F8299053F82AA053F82BB014
:102A900008F0FF0809F0FF090AF0FF0A84F020049B
:102AA00084EA080484EA092484EA0A4484EA0B6478
:102AB00085EA040586EA050687EA06072DE9F0009F
:102AC0005FFA97F85FFAA7F95FFAB7FA5FFA87FB40
:102AD00053F8288053F8299053F82AA053F82BB0C4
:102AE00008F0FF0809F0FF090AF0FF0A84F040042B
:102AF00084EA080484EA092484EA0A4484EA0B6428
:102B000085EA040586EA050687EA06072DE9F0004E
:102B10005FFA97F85FFAA7F95FFAB7FA5FFA87FBEF
:102B200053F8288053F8299053F82AA053F82BB073
:102B300008F0FF0809F0FF090AF0FF0A84F080049A
:102B400084EA080484EA092484EA0A4484EA0B64D7
:102B500085EA040586EA050687EA06072DE9F000FE
:102B60005FFA97F85FFAA7F95FFAB7FA5FFA87FB9F
:102B700053F8288053F8299053F82AA053F82BB023
:102B800008F0FF0809F0FF090AF0FF0A84F01B04AF
:102B900084EA080484EA092484EA0A4484EA0B6487
:102BA00085EA040586EA050687EA06072DE9F000AE
:102BB0005FFA97F85FFAA7F95FFAB7FA5FFA87FB4F
:102BC00053F8288053F8299053F82AA053F82BB0D3
:102BD00008F0FF0809F0FF090AF0FF0A84F0360444
:102BE00084EA080484EA092484EA0A4484EA0B6437
:102BF00085EA040586EA050687EA06070C604D604B
:102C00008E60CF60BDE8F0005FFA94F85FFAA4F937
:102C10005FFAB4FA5FFA84FB53F8288053F82990DE
:102C200053F82AA053F82BB05FFA88F85FFA89F9B5
:102C30005FFA8AFA5FFA8BFB52F8288052F8294033
:102C400052F82AA052F82BB084EA3A6484EA3B4452
:102C500084EA38245FFA95F85FFAA5F95FFAB5FAC5
:102C60005FFA85FB53F8288053F8299053F82AA07F
:102C700053F82BB05FFA88F85FFA89F95FFA8AFA9D
:102C80005FFA8BFB52F8288052F8295052F82AA09C
:102C900052F82BB085EA3A6585EA3B4585EA382546
:102CA0005FFA96F85FFAA6F95FFAB6FA5FFA86FB62
:102CB00053F8288053F8299053F82AA053F82BB0E2
:102CC0005FFA88F85FFA89F95FFA8AFA5FFA8BFB94
:102CD00052F8288052F8296052F82AA052F82BB0F6
:102CE00086EA3A6686EA3B4686EA38265FFA97F82D
:102CF0005FFAA7F95FFAB7FA5FFA87FB53F8288003
:102D000053F8299053F82AA053F82BB05FFA88F8AB
:102D10005FFA89F95FFA8AFA5FFA8BFB52F828802A
:102D200052F8297052F82AA052F82BB087EA3A6775
:102D300087EA3B4787EA38270C614D618E61CF6196
:102D4000BDE8F0005FFA94F85FFAA4F95FFAB4FA0C
:102D50005FFA84FB53F8288053F8299053F82AA08F
:102D600053F82BB05FFA88F85FFA89F95FFA8AFAAC
:102D70005FFA8BFB52F8288052F8294052F82AA0BB
:102D800052F82BB084EA3A6484EA3B4484EA38245B
:102D90005FFA95F85FFAA5F95FFAB5FA5FFA85FB75
:102DA00053F8288053F8299053F82AA053F82BB0F1
:102DB0005FFA88F85FFA89F95FFA8AFA5FFA8BFBA3
:102DC00052F8288052F8295052F82AA052F82BB015
:102DD00085EA3A6585EA3B4585EA38255FFA96F843
:102DE0005FFAA6F95FFAB6FA5FFA86FB53F8288015
:102DF00053F8299053F82AA053F82BB05FFA88F8BB
:102E00005FFA89F95FFA8AFA5FFA8BFB52F8288039
:102E100052F8296052F82AA052F82BB086EA3A6696
:102E200086EA3B4686EA38265FFA97F85FFAA7F902
:102E30005FFAB7FA5FFA87FB53F8288053F82990B6
:102E400053F82AA053F82BB05FFA88F85FFA89F993
:102E50005FFA8AFA5FFA8BFB52F8288052F82970E1
:102E600052F82AA052F82BB087EA3A6787EA3B4724
:102E700087EA38270C624D628E62CF62BDE8F000AF
:102E80005FFA94F85FFAA4F95FFAB4FA5FFA84FB88
:102E900053F8288053F8299053F82AA053F82BB000
:102EA0005FFA88F85FFA89F95FFA8AFA5FFA8BFBB2
:102EB00052F8288052F8294052F82AA052F82BB034
:102EC00084EA3A6484EA3B4484EA38245FFA95F859
:102ED0005FFAA5F95FFAB5FA5FFA85FB53F8288027
:102EE00053F8299053F82AA053F82BB05FFA88F8CA
:102EF0005FFA89F95FFA8AFA5FFA8BFB52F8288049
:102F000052F8295052F82AA052F82BB085EA3A65B7
:102F100085EA3B4585EA38255FFA96F85FFAA6F917
:102F20005FFAB6FA5FFA86FB53F8288053F82990C7
:102F300053F82AA053F82BB05FFA88F85FFA89F9A2
:102F40005FFA8AFA5FFA8BFB52F8288052F8296000
:102F500052F82AA052F82BB086EA3A6686EA3B4637
:102F600086EA38265FFA97F85FFAA7F95FFAB7FAA8
:102F70005FFA87FB53F8288053F8299053F82AA06A
:102F800053F82BB05FFA88F85FFA89F95FFA8AFA8A
:102F90005FFA8BFB52F8288052F8297052F82AA069
:102FA00052F82BB087EA3A6787EA3B4787EA382727
:102FB0000C634D638E63CF63BDE8F0005FFA94F855
:102FC0005FFAA4F95FFAB4FA5FFA84FB53F8288039
:102FD00053F8299053F82AA053F82BB05FFA88F8D9
:102FE0005FFA89F95FFA8AFA5FFA8BFB52F8288058
:102FF00052F8294052F82AA052F82BB084EA3A64D9
:1030000084EA3B4484EA38245FFA95F85FFAA5F92C
:103010005FFAB5FA5FFA85FB53F8288053F82990D8
:1030200053F82AA053F82BB05FFA88F85FFA89F9B1
:103030005FFA8AFA5FFA8BFB52F8288052F829501F
:1030400052F82AA052F82BB085EA3A6585EA3B454A
:1030500085EA38255FFA96F85FFAA6F95FFAB6FABC
:103060005FFA86FB53F8288053F8299053F82AA07A
:1030700053F82BB05FFA88F85FFA89F95FFA8AFA99
:103080005FFA8BFB52F8288052F8296052F82AA088
:1030900052F82BB086EA3A6686EA3B4686EA38263C
:1030A0005FFA97F85FFAA7F95FFAB7FA5FFA87FB5A
:1030B00053F8288053F8299053F82AA053F82BB0DE
:1030C0005FFA88F85FFA89F95FFA8AFA5FFA8BFB90
:1030D00052F8288052F8297052F82AA052F82BB0E2
:1030E00087EA3A6787EA3B4787EA38270C644D64EA
:1030F0008E64CF64BDE8F0005FFA94F85FFAA4F93B
:103100005FFAB4FA5FFA84FB53F8288053F82990E9
:1031100053F82AA053F82BB05FFA88F85FFA89F9C0
:103120005FFA8AFA5FFA8BFB52F8288052F829403E
:1031300052F82AA052F82BB084EA3A6484EA3B445D
:1031400084EA38245FFA95F85FFAA5F95FFAB5FAD0
:103150005FFA85FB53F8288053F8299053F82AA08A
:1031600053F82BB05FFA88F85FFA89F95FFA8AFAA8
:103170005FFA8BFB52F8288052F8295052F82AA0A7
:1031800052F82BB085EA3A6585EA3B4585EA382551
:103190005FFA96F85FFAA6F95FFAB6FA5FFA86FB6D
:1031A00053F8288053F8299053F82AA053F82BB0ED
:1031B0005FFA88F85FFA89F95FFA8AFA5FFA8BFB9F
:1031C00052F8288052F8296052F82AA052F82BB001
:1031D00086EA3A6686EA3B4686EA38265FFA97F838
:1031E0005FFAA7F95FFAB7FA5FFA87FB53F828800E
:1031F00053F8299053F82AA053F82BB05FFA88F8B7
:103200005FFA89F95FFA8AFA5FFA8BFB52F8288035
:1032100052F8297052F82AA052F82BB087EA3A6780
:1032200087EA3B4787EA38270C654D658E65CF6591
:10323000BDE8F0005FFA94F85FFAA4F95FFAB4FA17
:103240005FFA84FB53F8288053F8299053F82AA09A
:1032500053F82BB05FFA88F85FFA89F95FFA8AFAB7
:103260005FFA8BFB52F8288052F8294052F82AA0C6
:1032700052F82BB084EA3A6484EA3B4484EA382466
:103280005FFA95F85FFAA5F95FFAB5FA5FFA85FB80
:1032900053F8288053F8299053F82AA053F82BB0FC
:1032A0005FFA88F85FFA89F95FFA8AFA5FFA8BFBAE
:1032B00052F8288052F8295052F82AA052F82BB020
:1032C00085EA3A6585EA3B4585EA38255FFA96F84E
:1032D0005FFAA6F95FFAB6FA5FFA86FB53F8288020
:1032E00053F8299053F82AA053F82BB05FFA88F8C6
:1032F0005FFA89F95FFA8AFA5FFA8BFB52F8288045
:1033000052F8296052F82AA052F82BB086EA3A66A1
:1033100086EA3B4686EA38265FFA97F85FFAA7F90D
:103320005FFAB7FA5FFA87FB53F8288053F82990C1
:1033300053F82AA053F82BB05FFA88F85FFA89F99E
:103340005FFA8AFA5FFA8BFB52F8288052F82970EC
:1033500052F82AA052F82BB087EA3A6787EA3B472F
:1033600087EA38270C664D668E66CF66BDE8F000AA
:103370005FFA94F85FFAA4F95FFAB4FA5FFA84FB93
:1033800053F8288053F8299053F82AA053F82BB00B
:103390005FFA88F85FFA89F95FFA8AFA5FFA8BFBBD
:1033A00052F8288052F8294052F82AA052F82BB03F
:1033B00084EA3A6484EA3B4484EA38245FFA95F864
:1033C0005FFAA5F95FFAB5FA5FFA85FB53F8288032
:1033D00053F8299053F82AA053F82BB05FFA88F8D5
:1033E0005FFA89F95FFA8AFA5FFA8BFB52F8288054
:1033F00052F8295052F82AA052F82BB085EA3A65C3
:1034000085EA3B4585EA38255FFA96F85FFAA6F922
:103410005FFAB6FA5FFA86FB53F8288053F82990D2
:1034200053F82AA053F82BB05FFA88F85FFA89F9AD
:103430005FFA8AFA5FFA8BFB52F8288052F829600B
:1034400052F82AA052F82BB086EA3A6686EA3B4642
:1034500086EA38265FFA97F85FFAA7F95FFAB7FAB3
:103460005FFA87FB53F8288053F8299053F82AA075
:1034700053F82BB05FFA88F85FFA89F95FFA8AFA95
:103480005FFA8BFB52F8288052F8297052F82AA074
:1034900052F82BB087EA3A6787EA3B4787EA382732
:1034A0000C674D678E67CF67BDE8F0005FFA94F850
:1034B0005FFAA4F95FFAB4FA5FFA84FB53F8288044
:1034C00053F8299053F82AA053F82BB05FFA88F8E4
:1034D0005FFA89F95FFA8AFA5FFA8BFB52F8288063
:1034E00052F8294052F82AA052F82BB084EA3A64E4
:1034F00084EA3B4484EA38245FFA95F85FFAA5F938
:103500005FFAB5FA5FFA85FB53F8288053F82990E3
:1035100053F82AA053F82BB05FFA88F85FFA89F9BC
:103520005FFA8AFA5FFA8BFB52F8288052F829502A
:1035300052F82AA052F82BB085EA3A6585EA3B4555
:1035400085EA38255FFA96F85FFAA6F95FFAB6FAC7
:103550005FFA86FB53F8288053F8299053F82AA085
:1035600053F82BB05FFA88F85FFA89F95FFA8AFAA4
:103570005FFA8BFB52F8288052F8296052F82AA093
:1035800052F82BB086EA3A6686EA3B4686EA382647
:103590005FFA97F85FFAA7F95FFAB7FA5FFA87FB65
:1035A00053F8288053F8299053F82AA053F82BB0E9
:1035B0005FFA88F85FFA89F95FFA8AFA5FFA8BFB9B
:1035C00052F8288052F8297052F82AA052F82BB0ED
:1035D00087EA3A6787EA3B4787EA382701F18001A3
:1035E0000C604D608E60CF60BDE8F0005FFA94F82B
:1035F0005FFAA4F95FFAB4FA5FFA84FB53F8288003
:1036000053F8299053F82AA053F82BB05FFA88F8A2
:103610005FFA89F95FFA8AFA5FFA8BFB52F8288021
:1036200052F8294052F82AA052F82BB084EA3A64A2
:1036300084EA3B4484EA38245FFA95F85FFAA5F9F6
:103640005FFAB5FA5FFA85FB53F8288053F82990A2
:1036500053F82AA053F82BB05FFA88F85FFA89F97B
:103660005FFA8AFA5FFA8BFB52F8288052F82950E9
:1036700052F82AA052F82BB085EA3A6585EA3B4514
:1036800085EA38255FFA96F85FFAA6F95FFAB6FA86
:103690005FFA86FB53F8288053F8299053F82AA044
:1036A00053F82BB05FFA88F85FFA89F95FFA8AFA63
:1036B0005FFA8BFB52F8288052F8296052F82AA052
:1036C00052F82BB086EA3A6686EA3B4686EA382606
:1036D0005FFA97F85FFAA7F95FFAB7FA5FFA87FB24
:1036E00053F8288053F8299053F82AA053F82BB0A8
:1036F0005FFA88F85FFA89F95FFA8AFA5FFA8BFB5A
:1037000052F8288052F8297052F82AA052F82BB0AB
:1037100087EA3A6787EA3B4787EA38270C614D61B9
:103720008E61CF61BDE8F00F70470000B011000856
:103730002DE9F45F91E8F000B0E8000F4FEA000EC9
:10374000DFF8A4C784EA080485EA090586EA0A06C0
:1037500087EA0B07BEE8000FE0B2E9B2F2B2FBB2B3
:103760005CF820005CF821105CF822205CF8233023
:1037700088EA304889EA31498AEA324A8BEA334B8F
:103780005FFA97F05FFA94F15FFA95F25FFA96F3B9
:103790005CF820005CF821105CF822205CF82330F3
:1037A00088EA302889EA31298AEA322A8BEA332BDF
:1037B0005FFAA6F05FFAA7F15FFAA4F25FFAA5F349
:1037C0005CF820005CF821105CF822205CF82330C3
:1037D00088EA000889EA01098AEA020A8BEA030BEF
:1037E0005FFAB5F05FFAB6F15FFAB7F25FFAB4F3D9
:1037F0005CF820005CF821105CF822205CF8233093
:1038000088EA306889EA31698AEA326A8BEA336B7E
:10381000BEE8F0005FFA88F05FFA89F15FFA8AF299
:103820005FFA8BF35CF820005CF821105CF8222032
:103830005CF8233084EA304485EA314586EA324632
:1038400087EA33475FFA9BF05FFA98F15FFA99F2E3
:103850005FFA9AF35CF820005CF821105CF82220F3
:103860005CF8233084EA302485EA312586EA322662
:1038700087EA33275FFAAAF05FFAABF15FFAA8F2A2
:103880005FFAA9F35CF820005CF821105CF82220B4
:103890005CF8233084EA000485EA010586EA020622
:1038A00087EA03075FFAB9F05FFABAF15FFABBF291
:1038B0005FFAB8F35CF820005CF821105CF8222075
:1038C0005CF8233084EA306485EA316586EA326642
:1038D00087EA3367BEE8000FE0B2E9B2F2B2FBB2AA
:1038E0005CF820005CF821105CF822205CF82330A2
:1038F00088EA304889EA31498AEA324A8BEA334B0E
:103900005FFA97F05FFA94F15FFA95F25FFA96F337
:103910005CF820005CF821105CF822205CF8233071
:1039200088EA302889EA31298AEA322A8BEA332B5D
:103930005FFAA6F05FFAA7F15FFAA4F25FFAA5F3C7
:103940005CF820005CF821105CF822205CF8233041
:1039500088EA000889EA01098AEA020A8BEA030B6D
:103960005FFAB5F05FFAB6F15FFAB7F25FFAB4F357
:103970005CF820005CF821105CF822205CF8233011
:1039800088EA306889EA31698AEA326A8BEA336BFD
:10399000BEE8F0005FFA88F05FFA89F15FFA8AF218
:1039A0005FFA8BF35CF820005CF821105CF82220B1
:1039B0005CF8233084EA304485EA314586EA3246B1
:1039C00087EA33475FFA9BF05FFA98F15FFA99F262
:1039D0005FFA9AF35CF820005CF821105CF8222072
:1039E0005CF8233084EA302485EA312586EA3226E1
:1039F00087EA33275FFAAAF05FFAABF15FFAA8F221
:103A00005FFAA9F35CF820005CF821105CF8222032
:103A10005CF8233084EA000485EA010586EA0206A0
:103A200087EA03075FFAB9F05FFABAF15FFABBF20F
:103A30005FFAB8F35CF820005CF821105CF82220F3
:103A40005CF8233084EA306485EA316586EA3266C0
:103A500087EA3367BEE8000FE0B2E9B2F2B2FBB228
:103A60005CF820005CF821105CF822205CF8233020
:103A700088EA304889EA31498AEA324A8BEA334B8C
:103A80005FFA97F05FFA94F15FFA95F25FFA96F3B6
:103A90005CF820005CF821105CF822205CF82330F0
:103AA00088EA302889EA31298AEA322A8BEA332BDC
:103AB0005FFAA6F05FFAA7F15FFAA4F25FFAA5F346
:103AC0005CF820005CF821105CF822205CF82330C0
:103AD00088EA000889EA01098AEA020A8BEA030BEC
:103AE0005FFAB5F05FFAB6F15FFAB7F25FFAB4F3D6
:103AF0005CF820005CF821105CF822205CF8233090
:103B000088EA306889EA31698AEA326A8BEA336B7B
:103B1000BEE8F0005FFA88F05FFA89F15FFA8AF296
:103B20005FFA8BF35CF820005CF821105CF822202F
:103B30005CF8233084EA304485EA314586EA32462F
:103B400087EA33475FFA9BF05FFA98F15FFA99F2E0
:103B50005FFA9AF35CF820005CF821105CF82220F0
:103B60005CF8233084EA302485EA312586EA32265F
:103B700087EA33275FFAAAF05FFAABF15FFAA8F29F
:103B80005FFAA9F35CF820005CF821105CF82220B1
:103B90005CF8233084EA000485EA010586EA02061F
:103BA00087EA03075FFAB9F05FFABAF15FFABBF28E
:103BB0005FFAB8F35CF820005CF821105CF8222072
:103BC0005CF8233084EA306485EA316586EA32663F
:103BD00087EA3367BEE8000FE0B2E9B2F2B2FBB2A7
:103BE0005CF820005CF821105CF822205CF823309F
:103BF00088EA304889EA31498AEA324A8BEA334B0B
:103C00005FFA97F05FFA94F15FFA95F25FFA96F334
:103C10005CF820005CF821105CF822205CF823306E
:103C200088EA302889EA31298AEA322A8BEA332B5A
:103C30005FFAA6F05FFAA7F15FFAA4F25FFAA5F3C4
:103C40005CF820005CF821105CF822205CF823303E
:103C500088EA000889EA01098AEA020A8BEA030B6A
:103C60005FFAB5F05FFAB6F15FFAB7F25FFAB4F354
:103C70005CF820005CF821105CF822205CF823300E
:103C800088EA306889EA31698AEA326A8BEA336BFA
:103C9000BEE8F0005FFA88F05FFA89F15FFA8AF215
:103CA0005FFA8BF35CF820005CF821105CF82220AE
:103CB0005CF8233084EA304485EA314586EA3246AE
:103CC00087EA33475FFA9BF05FFA98F15FFA99F25F
:103CD0005FFA9AF35CF820005CF821105CF822206F
:103CE0005CF8233084EA302485EA312586EA3226DE
:103CF00087EA33275FFAAAF05FFAABF15FFAA8F21E
:103D00005FFAA9F35CF820005CF821105CF822202F
:103D10005CF8233084EA000485EA010586EA02069D
:103D200087EA03075FFAB9F05FFABAF15FFABBF20C
:103D30005FFAB8F35CF820005CF821105CF82220F0
:103D40005CF8233084EA306485EA316586EA3266BD
:103D500087EA3367BEE8000FE0B2E9B2F2B2FBB225
:103D60005CF820005CF821105CF822205CF823301D
:103D700088EA304889EA31498AEA324A8BEA334B89
:103D80005FFA97F05FFA94F15FFA95F25FFA96F3B3
:103D90005CF820005CF821105CF822205CF82330ED
:103DA00088EA302889EA31298AEA322A8BEA332BD9
:103DB0005FFAA6F05FFAA7F15FFAA4F25FFAA5F343
:103DC0005CF820005CF821105CF822205CF82330BD
:103DD00088EA000889EA01098AEA020A8BEA030BE9
:103DE0005FFAB5F05FFAB6F15FFAB7F25FFAB4F3D3
:103DF0005CF820005CF821105CF822205CF823308D
:103E0000DFF8E8C088EA306889EA31698AEA326A0C
:103E10008BEA336BBEE8F0005FFA88F05FFA89F155
:103E20005FFA8AF25FFA8BF35CF820005CF82110ED
:103E30005CF822205CF8233084EA000485EA01055E
:103E400086EA020687EA03075FFA9BF05FFA98F1B9
:103E50005FFA99F25FFA9AF35CF820005CF821109F
:103E60005CF822205CF8233084EA002485EA0125EE
:103E700086EA022687EA03275FFAAAF05FFAABF127
:103E80005FFAA8F25FFAA9F35CF820005CF8211051
:103E90005CF822205CF8233084EA004485EA01457E
:103EA00086EA024687EA03475FFAB9F05FFABAF199
:103EB0005FFABBF25FFAB8F35CF820005CF82110FF
:103EC0005CF822205CF8233084EA006485EA01650E
:103ED00086EA02665DF8042B87EA036782E8F00051
:103EE000BDE8F05F70470000D0200008D024000833
:103EF000092B2DE9F84316461C4602F1FF3705460B
:103F000014D8002FD8BF012004DD3A4603F084FE08
:103F10003D4430461D4BA3FB0423DB0803EB830326
:103F2000A4EB430330332B70BDE8F883174BA3FB9E
:103F300004384FEAD808B8F1090FA2F1020914D8E1
:103F4000B9F1000F1DDD4A4603F066FEA944304674
:103F50000E4BA3FB0823DB0803EB8303A8EB43030F
:103F600030333D4489F80030D4E7094BA3FB0423E8
:103F70005B094A46FFF7BCFF05EB0009471C02300E
:103F8000E6E7814601270220E2E700BFCDCCCCCC9A
:103F90001F85EB512DE9F843002B144605463ADB0B
:103FA000092B1E461EDD554FA7FB0637FF08092FBC
:103FB00059D8A2F10208B8F1000F40F38F804246B1
:103FC00003F02AFE05EB0802611E20464B4BA3FBC3
:103FD0000743DB0803EB8303A7EB43033033137082
:103FE0000D440CE0541E002CD8BF012007DD012C2D
:103FF000B8BF0124224603F00FFE2544601C3F4950
:10400000A1FB0631C90801EB8101A6EB410130316A
:104010002970BDE8F8835E42092E15DD374FA7FBF6
:104020000637FF08092F40D8A2F10308B8F1000FA6
:104030005DDD424603F0F0FD05EB0802611E2046FF
:104040002D2302F8013BC1E7941E002C53DD012C07
:10405000B8BF01242246254403F0DEFD2D2305F8D8
:10406000013BA01CCBE7264BA3FB06384FEA5818B0
:10407000B8F1090FA2F1030923D8B9F1000F31DD1E
:104080004A4603F0C9FD05EB090EA21E611E20463B
:104090001A4BA3FB0843DB0803EB8303A8EB4303A2
:1040A00030332A448EF8003090E7154BA3FB0623EB
:1040B0005B09A21E5B42FFF76DFF2A18411C02300C
:1040C00084E7104BA3FB06239B094A46FFF762FFD8
:1040D00005EB000E421C811C0330D9E7024601218A
:1040E000022073E78646022103200122D0E7024620
:1040F00002210320A4E70024B0E700BFCDCCCCCC44
:104100001F85EB51D34D62102DE9F04383B0154666
:104110000A9C5FEA141806461F461CD1013A002A81
:10412000D8BF012003DD164403F076FD284604F0D5
:104130000F04092C0AD927B95734347003B0BDE8ED
:10414000F0833734347003B0BDE8F083303434701A
:1041500003B0BDE8F083A2F10209220A17D1B9F138
:10416000000F22DD4A4603F057FDB1446A1E28467F
:1041700008F00F03092B05D997B9573389F8003098
:104180001644D4E7303389F800301644CFE7009264
:104190004A46FFF7B9FF06EB0009421C0230E7E789
:1041A000373389F800301644C1E7814601220220E6
:1041B000DEE700BF2DE9F04F884689B0144605467A
:1041C00008B10022027000269946217859B146456F
:1041D00080F0028125290ED0013429702178013622
:1041E00001350029F3D1B04540F2F6803046297000
:1041F00009B0BDE8F08F6178252938D030293BD04F
:104200000846A0F13003092B04F101044FF020010E
:1042100039D8002303EB830300EB430314F8010FA9
:10422000A0F13002303B092A03F0FF03F2D91A460D
:104230003244904538BFC6EB0803A0F1580038BFA0
:10424000DBB2202800F2CF80DFE800F0A5CDCDCD95
:10425000CDCDCDCDCDCDCD9D79CDCDCDCD79CDCD66
:10426000CDCDCDCDCDCDCD66CD3FCDCD20002970EE
:10427000023401360135A8E7A078A0F13003092BFC
:1042800004F10204C5D900221346D1E7D9F8007021
:104290005FEA171A09F104099B4640F0CD8003F14B
:1042A000FF3ABAF1000F40F3848152462846029348
:1042B00003F0B2FC029BAA441A469B4607F00F0784
:1042C000092F40F28580573783E0D9F800A0BAF172
:1042D000090F09F104091F4603F1FF3B00F20681B3
:1042E000BBF1000F40F35D815A462846029303F06C
:1042F00093FC029B05EB0B001A469B46C84BA3FBA5
:104300000A13DB0803EB8303AAEB43033033037088
:10431000013415445E4458E7D9F800100B7809F1D0
:104320000409002B00F022812A4602F8013B11F813
:10433000013FC5EB020B002BF7D15A46E8E7D9F84D
:104340000020002A09F104091F46C0F2B480092A9E
:1043500092464DDC5F1E002F40F32F81012FB8BF26
:1043600001273A46284603F057FC7A1CEB1993467E
:10437000AB49A1FB0A01C90801EB8101AAEB41018C
:1043800030311970C4E7D9F800302B70012209F1DF
:1043900004099346BCE7D9F800705FEA171A09F1DF
:1043A00004099B4668D103F1FF3ABAF1000F40F3CC
:1043B000FC8052462846029303F02EFC029BAA443E
:1043C0001A469B4607F00F07092F01D9373700E03F
:1043D00030378AF800709BE70023701E05F8013C17
:1043E00009B0BDE8F08F4FF0FF3009B0BDE8F08FA5
:1043F0008B4BA3FB023B4FEADB0BBBF1090FA7F191
:10440000020300F29480002B40F3FB801A462846FA
:10441000029303F001FC029B781E2B443A4680492C
:10442000A1FB0BE1C90801EB8101ABEB410130318C
:1044300019702B18BB469BE73A0AA3F1020340F020
:10444000A480002B40F3E2801A462846029303F032
:10445000E3FB029B0BF1FF312B445A460AF00F0A93
:10446000BAF1090F94BF0AF1300A0AF1570A83F82A
:1044700000A005EB010A21E73A0AA3F1020378D173
:10448000002B40F3C8801A462846029303F0C4FB71
:10449000029B0BF1FF312B445A460AF00F0ABAF186
:1044A000090F94BF0AF1300A0AF1370A83F800A015
:1044B00005EB010A86E7C2F1000ABAF1090F03F120
:1044C000FF3241DC9F1E002F40F3D280012FB8BF86
:1044D00001273A4607F1020B284603F09DFB2F44C3
:1044E0005A463B462D2103F8011B41E74C4BA3FBE9
:1044F0000A23DB08BA1E092B0393029261D8002A13
:104500002DDD284603F088FB029B03982B441946B7
:104510003A46434BA3FB00E3DB0803EB8303A0EB2A
:104520004303303305EB0B000B70BB46E6E63D4A18
:10453000A2FB0A201A4643092846FFF72BFD871CD9
:104540002B183A4601306AE7354BA3FB0A03DB0818
:104550005B422846FFF71EFD471C3A4669E70222E8
:10456000174629464FF0010B1846D2E71A469B46DC
:10457000CEE6009228461A460123FFF7C5FD00F15A
:10458000020B5A462B18411C87E7009228461A4610
:104590000023FFF7B9FD00F1020B5A462B18411C0E
:1045A0005CE7012293462846A8E601229346AA46E4
:1045B00008E701229346AA4680E6012293462B464D
:1045C000D6E6184BA3FB0A235B09FA1E092B0593B9
:1045D000049229D8002A4FDD284603F01DFB049BD6
:1045E0003A462B4405990E48A0FB01E0C00800EBB9
:1045F0008000A1EB400002993030187029440398E4
:1046000087E7022217462B46012008E7022293463D
:104610002B46012122E7022293462B4601213CE74B
:10462000CDCCCCCC1F85EB51254BA3FB0A239B099A
:104630001A46092A0693A7F104032ED8002B23DD7E
:104640001A462846079303F0E7FA079B05EB030E8B
:10465000049B3A4606991B48A0FB01C0C00800EB2A
:104660008000A1EB400030302B448EF80000B9E709
:10467000022293462F4634E70322012117462B4698
:104680004FF0020B0291ADE702230422029317467A
:10469000AE464FF0030B0123DCE70B4AA2FB0A20D6
:1046A0001A46430B2846FFF723FC071D811C3A4698
:1046B00005EB000E431C029100F1030BCAE700BF9B
:1046C000D34D6210CDCCCCCC5917B7D1F0B5224D1B
:1046D00096460E4607460FCDA3B06C460FC40FCDCD
:1046E0000FC42B6823603246734609A86421FFF784
:1046F00061FD632815DD194E9DF800003368DD6803
:1047000030B16C469A68954203D0DB689D4200D078
:10471000FEE7FBF739FD14F8010F0028F8D03368E5
:10472000F0E79DF8240058B10C4E09AD0024336821
:104730009A68974206D0DB689F4203D04FF0FF3063
:1047400023B0F0BDFBF720FD15F8010F0134002860
:10475000EDD1204623B0F0BD507D000810000020B0
:104760000FB400B5074B83B004AA1B6852F8041BB2
:1047700098680192FFF7AAFF03B05DF804EB04B05C
:10478000704700BF10000020F8B50D4F05463B688C
:1047900000789E68002488B1FBF7F6FC15F8010F3D
:1047A000013448B13B689A689642F5D0DB689E4276
:1047B000F2D04FF0FF30F8BD2046F8BDF8BD00BF85
:1047C000100000202DE9F047ADF52B6D1646804610
:1047D0004FF4A06289462CA8002103F01DFAB022F4
:1047E0000021684603F018FA30687168B268F3680F
:1047F0006C460FC40DF5B66530462146FCF7D8FE71
:1048000028464FF4A062002103F006FA00270DF5B8
:104810002B66B9B22C462A46002325F81310538084
:104820000833B3F5207F02F11002F6D10DF1B00A82
:104830005246214668461034FDF76AF8A6420AF14E
:10484000100AF5D1424601374FF4207349462CA88F
:10485000FCF7DCF8B7F5207F08F11008D9D101206A
:104860000DF52B6DBDE8F0872DE9F041ADF5225D2A
:1048700015468CB0B022074688466846002103F0F2
:10488000CBF928686968AA68EB686C460FC42846AB
:104890002146FCF78DFE00264FF4205200212CA863
:1048A00003F0BAF92CAC4FF4A05200212CA803F06D
:1048B000B3F9B1B22246002313800133B3F5207F50
:1048C000518002F11002F7D10DF522553035224604
:1048D000214668461034FDF71BF8A542F7D13A4649
:1048E00008364FF420732CA94046FCF7EDF8B6F5D6
:1048F000207F07F11007CFD101200DF5225D0CB00C
:10490000BDE8F0812DE9F04701F51F5909F13E0995
:10491000A1F1020E02F110084FF0000C17460646F6
:104920000021A6F800C00B46744637F8315034F821
:1049300002AF02311AFB05339BB2B1F5A06F338091
:10494000F3D10237C3F30E03474526F8023BE7D104
:104950000EF5A06ECE4500F11000DFD1BDE8F08766
:104960002DE9F04F02F51F5909F13E09A2F1020CA1
:1049700001F110080F4606469E463EF8022B328093
:104980006546002437F834A035F802BF02341BFB1B
:104990000A2292B2B4F5A06F3280F3D10237C2F38B
:1049A0000E02B84526F8022BE7D10CF5A06CCC45D9
:1049B00003F1100300F11000DCD1BDE8F08F00BF5F
:1049C00000F108038B42F0B58CBF00240124934210
:1049D0008CBF0023012301F1080602F10805B04253
:1049E00028BF44F00104A84228BF43F001031C4241
:1049F00000F0068242EA010303435B0740F00082B5
:104A00000E68156857684C6806EB050E0023C5F361
:104A10000F4505EB16451E466EF30F0307EB040E1C
:104A2000C4F30F4404EB17446EF30F0665F31F4302
:104A300064F31F4623F0802326F0802680E8480098
:104A400096688D68D768CC6806EB050E0023C5F321
:104A50000F4505EB16451E466EF30F0307EB040EDC
:104A6000C4F30F4404EB17446EF30F0665F31F43C2
:104A700064F31F4623F0802326F080268360C660FF
:104A800016690D6957694C6906EB050E0023C5F3DD
:104A90000F4505EB16451E466EF30F0307EB040E9C
:104AA000C4F30F4404EB17446EF30F0665F31F4382
:104AB00064F31F4623F0802326F0802603614661BD
:104AC00096698D69CF69D46906EB050E0023C5F39D
:104AD0000F4505EB16451E466EF30F0304EB070E5C
:104AE000C4F30F4404EB17446EF30F0665F31F4342
:104AF00064F31F4623F0802326F080268361C6617D
:104B00000E6A156A4F6A546A06EB050E0023C5F358
:104B10000F4505EB16451E466EF30F0307EB040E1B
:104B2000C4F30F4404EB17446EF30F0665F31F4301
:104B300064F31F4623F0802326F08026036246623A
:104B40008E6ACF6A956AD46A06EB050E0023C5F318
:104B50000F4505EB16451E466EF30F0307EB040EDB
:104B6000C4F30F4404EB17446EF30F0665F31F43C1
:104B700064F31F4623F0802326F080268362C662FA
:104B80000E6B156B4F6B546B06EB050E0023C5F3D4
:104B90000F4505EB16451E466EF30F0307EB040E9B
:104BA000C4F30F4404EB17446EF30F0665F31F4381
:104BB00064F31F4623F0802326F0802603634663B8
:104BC0008E6B956BCF6BD46B06EB050E0023C5F394
:104BD0000F4505EB16451E466EF30F0307EB040E5B
:104BE000C4F30F4404EB17446EF30F0665F31F4341
:104BF00064F31F4623F0802326F080268363C66378
:104C00000E6C156C4F6C546C06EB050E0023C5F34F
:104C10000F4505EB16451E466EF30F0307EB040E1A
:104C2000C4F30F4404EB17446EF30F0665F31F4300
:104C300064F31F4623F0802326F080260364466435
:104C40008E6C956CCF6CD46C06EB050E0023C5F30F
:104C50000F4505EB16451E466EF30F0307EB040EDA
:104C6000C4F30F4404EB17446EF30F0665F31F43C0
:104C700064F31F4623F0802326F080268364C664F5
:104C80000E6D156D4F6D546D06EB050E0023C5F3CB
:104C90000F4505EB16451E466EF30F0307EB040E9A
:104CA000C4F30F4404EB17446EF30F0665F31F4380
:104CB00064F31F4623F0802326F0802603654665B3
:104CC0008E6D956DCF6DD46D06EB050E0023C5F38B
:104CD0000F4505EB16451E466EF30F0307EB040E5A
:104CE000C4F30F4404EB17446EF30F0665F31F4340
:104CF00064F31F4623F0802326F080268365C66573
:104D00000E6E156E4F6E546E06EB050E0023C5F346
:104D10000F4505EB16451E466EF30F0307EB040E19
:104D2000C4F30F4404EB17446EF30F0665F31F43FF
:104D300064F31F4623F0802326F080260366466630
:104D40008E6E956ECF6ED46E06EB050E0023C5F306
:104D50000F4505EB16451E466EF30F0307EB040ED9
:104D6000C4F30F4404EB17446EF30F0665F31F43BF
:104D700064F31F4623F0802326F080268366C666F0
:104D80000E6F156F4F6F546F06EB050E0023C5F3C2
:104D90000F4505EB16451E466EF30F0307EB040E99
:104DA000C4F30F4404EB17446EF30F0665F31F437F
:104DB00064F31F4623F0802326F0802603674667AE
:104DC0008E6FCD6F916FD26F002306EB010E1C46E4
:104DD000AF18C1F30F41C2F30F4201EB16416EF35E
:104DE0000F0367F30F0402EB154261F31F4362F3F5
:104DF0001F4423F0802324F080248367C467F0BD20
:104E00008C1E023A02387E3134F8025F32F8023FDB
:104E10002B44C3F30E038C4220F8023FF4D1F0BDC3
:104E200000F108038B42F0B58CBF002401249342AB
:104E30008CBF0023012301F1080602F10805B042EE
:104E400028BF44F00104A84228BF43F001031C42DC
:104E500000F0068242EA010303435B0740F0008250
:104E60000E6815684F685468C5EB060E0023C5F33D
:104E70000F45C5EB16451E466EF30F03C4EB070E38
:104E8000C4F30F44C4EB17446EF30F0665F31F43DE
:104E900064F31F4623F0802326F0802680E8480034
:104EA0008E689568CF68D468C5EB060E0023C5F3FD
:104EB0000F45C5EB16451E466EF30F03C4EB070EF8
:104EC000C4F30F44C4EB17446EF30F0665F31F439E
:104ED00064F31F4623F0802326F080268360C6609B
:104EE0000E6915694F695469C5EB060E0023C5F3B9
:104EF0000F45C5EB16451E466EF30F03C4EB070EB8
:104F0000C4F30F44C4EB17446EF30F0665F31F435D
:104F100064F31F4623F0802326F080260361466158
:104F20008E699569CF69D469C5EB060E0023C5F378
:104F30000F45C5EB16451E466EF30F03C4EB070E77
:104F4000C4F30F44C4EB17446EF30F0665F31F431D
:104F500064F31F4623F0802326F080268361C66118
:104F60000E6A156A4F6A546AC5EB060E0023C5F334
:104F70000F45C5EB16451E466EF30F03C4EB070E37
:104F8000C4F30F44C4EB17446EF30F0665F31F43DD
:104F900064F31F4623F0802326F0802603624662D6
:104FA0008E6ACF6A956AD46AC5EB060E0023C5F3F4
:104FB0000F45C5EB16451E466EF30F03C4EB070EF7
:104FC000C4F30F44C4EB17446EF30F0665F31F439D
:104FD00064F31F4623F0802326F080268362C66296
:104FE0000E6B156B4F6B546BC5EB060E0023C5F3B0
:104FF0000F45C5EB16451E466EF30F03C4EB070EB7
:10500000C4F30F44C4EB17446EF30F0665F31F435C
:1050100064F31F4623F0802326F080260363466353
:105020008E6B956BCF6BD46BC5EB060E0023C5F36F
:105030000F45C5EB16451E466EF30F03C4EB070E76
:10504000C4F30F44C4EB17446EF30F0665F31F431C
:1050500064F31F4623F0802326F080268363C66313
:105060000E6C156C4F6C546CC5EB060E0023C5F32B
:105070000F45C5EB16451E466EF30F03C4EB070E36
:10508000C4F30F44C4EB17446EF30F0665F31F43DC
:1050900064F31F4623F0802326F0802603644664D1
:1050A0008E6C956CCF6CD46CC5EB060E0023C5F3EB
:1050B0000F45C5EB16451E466EF30F03C4EB070EF6
:1050C000C4F30F44C4EB17446EF30F0665F31F439C
:1050D00064F31F4623F0802326F080268364C66491
:1050E0000E6D156D4F6D546DC5EB060E0023C5F3A7
:1050F0000F45C5EB16451E466EF30F03C4EB070EB6
:10510000C4F30F44C4EB17446EF30F0665F31F435B
:1051100064F31F4623F0802326F08026036546654E
:105120008E6D956DCF6DD46DC5EB060E0023C5F366
:105130000F45C5EB16451E466EF30F03C4EB070E75
:10514000C4F30F44C4EB17446EF30F0665F31F431B
:1051500064F31F4623F0802326F080268365C6650E
:105160000E6E156E4F6E546EC5EB060E0023C5F322
:105170000F45C5EB16451E466EF30F03C4EB070E35
:10518000C4F30F44C4EB17446EF30F0665F31F43DB
:1051900064F31F4623F0802326F0802603664666CC
:1051A0008E6E956ECF6ED46EC5EB060E0023C5F3E2
:1051B0000F45C5EB16451E466EF30F03C4EB070EF5
:1051C000C4F30F44C4EB17446EF30F0665F31F439B
:1051D00064F31F4623F0802326F080268366C6668C
:1051E0000E6F156F4F6F546FC5EB060E0023C5F39E
:1051F0000F45C5EB16451E466EF30F03C4EB070EB5
:10520000C4F30F44C4EB17446EF30F0665F31F435A
:1052100064F31F4623F0802326F080260367466749
:105220008E6FCD6F916FD26F0023C1EB060E1C46BF
:10523000AF1AC1F30F41C2F30F42C1EB16416EF337
:105240000F0367F30F04C2EB154261F31F4362F3D0
:105250001F4423F0802324F080248367C467F0BDBB
:105260008C1E023A02387E3134F8023F32F8025F77
:105270005B1BC3F30E038C4220F8023FF4D1F0BD58
:105280002DE9F0414C78230E22020C7800252243B0
:105290002B43970847EA83779C08BE0846EA847642
:1052A000B5081C0945EA84754FEA931EAC0844EA28
:1052B0008E744FEA132C4FEA940E4EEA8C7E4FEA1E
:1052C000423C9A0A4FEA9E0343EA82737F036403D7
:1052D0004FEA4E32760307F4C04E6D0304F4C04724
:1052E0005C03DB020CF4C04C06F4C04605F4C04578
:1052F00002F4C04204F4C04403F4C043A0F800C068
:10530000A0F802E08680C58007814281C381848144
:10531000CC78230E22028C78002514431D434FEADB
:10532000940C4CEA857CAB084FEA9C0E4EEA837ED7
:105330004FEA9E072B0947EA8377AA09BB0843EA8D
:1053400082732E0A9A0842EA86724FEA952866030B
:105350005D034FEA4C34930843EA887304F4C04475
:1053600044824FEA4E3E5C037F035203DB0206F4A5
:10537000C0460EF4C04E07F4C04705F4C04502F421
:10538000C04204F4C04403F4C0430682A0F814E011
:10539000C78205834283C38384834C79230E220210
:1053A0000C79002514431D434FEA940C4CEA857C8C
:1053B000AB084FEA9C0E4EEA837E4FEA9E072B090C
:1053C00047EA8377AA09BB0843EA82732E0A9A0840
:1053D00042EA86724FEA952866035D034FEA4C3431
:1053E000930843EA887304F4C04444844FEA4E3E71
:1053F0005C037F035203DB0206F4C0460EF4C04E8A
:1054000007F4C04705F4C04502F4C04204F4C044A8
:1054100003F4C0430684A0F824E0C78405854285D0
:10542000C3858485CC79230E22028C790025144310
:105430001D434FEA940C4CEA857CAB084FEA9C0E66
:105440004EEA837E4FEA9E072B0947EA8377AA0933
:10545000BB0843EA82732E0A9A0842EA86724FEA30
:10546000952866035D034FEA4C34930843EA88733A
:1054700004F4C04444864FEA4E3E5C037F0352036B
:10548000DB0206F4C0460EF4C04E07F4C04705F434
:10549000C04502F4C04204F4C04403F4C04306868D
:1054A000A0F834E0C78605874287C38784874C7A93
:1054B000230E22020C7A002514431D434FEA940C5C
:1054C0004CEA857CAB084FEA9C0E4EEA837E4FEA9D
:1054D0009E072B0947EA8377AA09BB0843EA827330
:1054E0002E0A9A0842EA86724FEA952866035D03FF
:1054F0004FEA4C34930843EA887304F4C044A0F89C
:1055000042404FEA4E3E5C037F035203DB0206F447
:10551000C0460EF4C04E07F4C04705F4C04502F47F
:10552000C04204F4C04403F4C043A0F84060A0F8B3
:1055300044E0A0F84670A0F84850A0F84A20A0F82F
:105540004E30A0F84C40CC7A230E22028C7A0025F3
:1055500014431D434FEA940C4CEA857CAB084FEA98
:105560009C0E4EEA837E4FEA9E072B0947EA83771B
:10557000AA09BB0843EA82732E0A9A0842EA867295
:105580004FEA952866035D034FEA4C34930843EADB
:10559000887304F4C044A0F852404FEA4E3E5C03C6
:1055A0007F035203DB0206F4C0460EF4C04E07F43C
:1055B000C04705F4C04502F4C04204F4C04403F4FB
:1055C000C043A0F85060A0F854E0A0F85670A0F8CE
:1055D0005850A0F85A20A0F85E30A0F85C404C7BF0
:1055E000230E22020C7B002514431D434FEA940C2A
:1055F0004CEA857CAB084FEA9C0E4EEA837E4FEA6C
:105600009E072B0947EA8377AA09BB0843EA8273FE
:105610002E0A9A0842EA86724FEA952866035D03CD
:105620004FEA4C34930843EA887306F4C04604F406
:10563000C044A0F860604FEA4E3EA0F862407F038D
:105640005C035203DB020EF4C04E07F4C04705F4BE
:10565000C04502F4C04204F4C04403F4C043A0F8BF
:1056600064E0A0F86670A0F86850A0F86A20A0F87E
:105670006E30A0F86C40CC7B230E22028C7B002580
:1056800022432B43970847EA83779908BE0846EAE6
:105690008176B508190945EA8175AC08990944EA8B
:1056A00081744FEA132EA10841EA8E714FEA423EFF
:1056B0009A0A8B0843EA827364034A037F0304F463
:1056C000C04176035C036D03DB020EF4C04E07F4A9
:1056D000C04706F4C04605F4C04502F4C04204F4D5
:1056E000C04403F4C043A0F870E0A0F87270A0F8C2
:1056F0007460A0F87650A0F87810A0F87A20A0F88E
:105700007C40A0F87E30BDE8F08100BF2DE9F04F6D
:105710008DB0CDE900BC00F1100EB1F80280CA884E
:105720004D898C880E890F88C8F30E0808F58058BB
:10573000C8F341381FFA88F8C2F30E024FEA987393
:1057400002F580520193C4F30E04C2F34133C5F352
:105750000E024FEA8805009504F5805402F5805248
:10576000DDE90089C4F34134C2F34135A4B29AB2F1
:10577000C6F30E06C7F30E0793014FEA041A06F5A7
:10578000805607F58057C7F341370293C6F3413679
:10579000CB898C8948EA0A0848EA0708B6B2970E0E
:1057A0000397320EC3F30E0303F580570592DDE92C
:1057B0000223C4F30E04330242EA080204F58054C3
:1057C00090460493AAB2C4F34134950DC7F3413314
:1057D000A4B29202DDE904670692220D07950992B0
:1057E000220346EA08060892DDE906899AB2940C7B
:1057F0000B94DDE9084548EA06084646930334431E
:105800000A932646DDE90A3433431E461B0A067016
:1058100043700230864501F110017FF47EAF0DB078
:10582000BDE8F08FABBE01E000207047002A00D039
:10583000106001207047069801884BF6AB629142D8
:1058400002D1043006907047FEE70000364B37481F
:105850001A68002142F001021A6099601A6822F069
:10586000847222F480321A6058601A6882B022F47E
:1058700080221A60D960009101911A6842F4803246
:105880001A601A4603E0009BB3F5A06F09D01368B5
:1058900003F400330193009B01330093019B002B21
:1058A000F1D0214B1B6813F4003318BF012301937F
:1058B000019B012B05D01E4B4FF000629A6002B095
:1058C0007047194B1B491A6C1B4842F080521A64EE
:1058D0000A6842F480420A609A689A609A6842F4C0
:1058E00000429A609A6842F4A0529A6058601A681E
:1058F00042F080721A601A4611680B4B8901FBD581
:105900000E4A40F2056111609A6822F003029A6023
:105910009A6842F002029A601A46936803F00C03F8
:10592000082BFAD1C7E700BF00380240103000242E
:1059300000ED00E00070004008544007003C0240C9
:105940000000000000000000000000000000000057
:105950000000000000000000000000000000000047
:105960000000000000000000000000000000000037
:105970000000000000000000000000000000000027
:105980000000000000000000000000000000000017
:105990000000000000000000000000000000000007
:1059A00000000000000000000000000000000000F7
:1059B00000000000000000000000000000000000E7
:1059C00000000000000000000000000000000000D7
:1059D00000000000000000000000000000000000C7
:1059E00000000000000000000000000000000000B7
:1059F00000000000000000000000000000000000A7
:105A0000704700BFAFF30080AFF30080AFF30080BA
:105A1000AFF30080AFF30080AFF30080AFF30080FE
:105A2000AFF30080AFF30080AFF30080AFF30080EE
:105A3000AFF30080AFF30080AFF30080AFF30080DE
:105A40000000000000000000000000000000000056
:105A50000000000000000000000000000000000046
:105A60000000000000000000000000000000000036
:105A70000000000000000000000000000000000026
:105A80000000000000000000000000000000000016
:105A90000000000000000000000000000000000006
:105AA00000000000000000000000000000000000F6
:105AB00000000000000000000000000000000000E6
:105AC00000000000000000000000000000000000D6
:105AD00000000000000000000000000000000000C6
